:020000040800F2
:100000000000012071090008C1090008C1090008A9
:10001000C1090008C1090008C1090008000000006A
:10002000000000000000000000000000C1090008FE
:10003000C109000800000000C109000861070008AC
:1000400000000000C1090008C1090008C10900083A
:10005000C1090008C1090008C1090008C109000858
:10006000C1090008C1090008C1090008C109000848
:10007000C1090008C1090008C1090008C109000838
:10008000C1090008C1090008C109000800000000FA
:10009000000000000000000000000000C10900088E
:1000A000C1090008C1090008C1090008C109000808
:1000B000C1090008C1090008C1090008C1090008F8
:1000C000C1090008C1090008C1090008C1090008E8
:1000D000C1090008C1090008C109000800000000AA
:1000E000C1090008C1090008C1090008000000009A
:1000F000000000000000000000000000C10900082E
:1001000000000000C1090008C1090008C109000879
:1001100000000000000000000000000000000000DF
:10012000C1090008C1090008C1090008C109000887
:10013000C1090008000000000000000000000000ED
:10014000000000000000000000000000C1090008DD
:10015000C1090008C1090008C1090008C109000857
:10016000C1090008C10900080000000000000000EB
:10017000000000000000000000000000000000007F
:10018000000000000000000000000000000000006F
:04019000C109000899
:1001940010B5054C237833B9044B13B10448AFF3BD
:1001A40000800123237010BD000000200000000027
:1001B4000C0A000808B5034B1BB103490348AFF30D
:1001C400008008BD00000000040000200C0A0008A4
:1001D40080B483B000AF0346FB710B46BB7113467A
:1001E4007B71FB79052B57D801A252F823F000BF8D
:1001F4000D020008250200083D020008550200080F
:100204006D02000885020008274B1B687979BA79CA
:10021400520001FA02F21146234A0B4313603CE0F8
:10022400224B1B687979BA79520001FA02F211461D
:100234001E4A0B43136030E01D4B1B687979BA7971
:10024400520001FA02F21146194A0B43136024E0EA
:10025400184B1B687979BA79520001FA02F21146F7
:10026400144A0B43136018E0134B1B687979BA796D
:10027400520001FA02F211460F4A0B4313600CE0DC
:100284000E4B1B687979BA79520001FA02F21146D1
:100294000A4A0B43136000E000BF00BF0C37BD46A1
:1002A4005DF8047B704700BF000002400004024078
:1002B40000080240000C024000100240001C0240F2
:1002C40080B483B000AF0346FB710B46BB71134689
:1002D4007B71FB79022B56D0022B7CDC002B02D0E5
:1002E400012B28D077E03F4B1B68BA7952000221DA
:1002F40001FA02F211463B4A0B431360BB79072B08
:100304000BD8384B1B6A7979BA79920001FA02F258
:100314001146344A0B4313625EE0324B5B6A7979CF
:10032400BA7902F00702920001FA02F211462D4A4C
:100334000B43536250E02C4B1B68BA7952000221E4
:1003440001FA02F21146284A0B431360BB79072BCA
:100354000BD8254B1B6A7979BA79920001FA02F21B
:100364001146214A0B43136236E01F4B5B6A7979CD
:10037400BA7902F00702920001FA02F211461A4A0F
:100384000B43536228E0194B1B68BA7952000221CF
:1003940001FA02F21146154A0B431360BB79072B8D
:1003A4000BD8124B1B6A7979BA79920001FA02F2DE
:1003B40011460E4A0B4313620EE00C4B5B6A7979CB
:1003C400BA7902F00702920001FA02F21146074AD2
:1003D4000B43536200E000BF00BF0C37BD465DF81D
:1003E400047B704700000240000402400008024001
:1003F40080B483B000AF0346FB710B46BB71134658
:100404007B717B79012B55D1FB79052B00F2AC80F4
:1004140001A252F823F000BF350400084B04000881
:1004240061040008770400088D040008A304000890
:10043400524B5B69BA79012101FA02F211464F4A23
:100444000B43536193E04E4B5B69BA79012101FA86
:1004540002F211464A4A0B43536188E0494B5B69F7
:10046400BA79012101FA02F21146464A0B4353615B
:100474007DE0454B5B69BA79012101FA02F211462C
:10048400414A0B43536172E0404B5B69BA790121E5
:1004940001FA02F211463D4A0B43536167E03C4BBB
:1004A4005B69BA79012101FA02F21146384A0B4319
:1004B40053615CE0FB79052B58D801A252F823F074
:1004C400DD040008F50400080D05000825050008F2
:1004D4003D05000855050008284B5B69BA790121E0
:1004E40001FA02F2D2431146244A0B4053613EE022
:1004F400234B5B69BA79012101FA02F2D243114616
:100504001F4A0B40536132E01E4B5B69BA790121EB
:1005140001FA02F2D24311461A4A0B40536126E013
:10052400194B5B69BA79012101FA02F2D2431146EF
:10053400154A0B4053611AE0144B5B69BA790121E7
:1005440001FA02F2D2431146104A0B4053610EE005
:100554000F4B5B69BA79012101FA02F2D2431146C9
:100564000B4A0B40536102E000BF00E000BF00BF34
:100574000C37BD465DF8047B704700BF00000240A5
:100584000004024000080240000C02400010024037
:10059400001C024080B483B000AF03460A46FB71DE
:1005A4001346BB71FB79032B36D801A252F823F012
:1005B400C5050008DB050008F1050008070600086A
:1005C400194B1B6BBA79012101FA02F21146164A42
:1005D4000B43136321E0144B5B6BBA79012101FADD
:1005E40002F21146104A0B43536316E00E4B1B6C88
:1005F400BA79012101FA02F211460B4A0B43136442
:100604000BE0094B5B6CBA79012101FA02F2114645
:10061400054A0B43536400E000BF00BF0C37BD46DE
:100624005DF8047B704700BF0038024080B400AF1F
:100634000B4B1B680A4A43F001031360084B9B6889
:10064400074A23F001039360054B9B68044A23F097
:100654000203936000BFBD465DF8047B704700BF92
:100664000038024080B400AF044B40F247321A60B5
:1006740000BFBD465DF8047B704700BF00300140F9
:1006840080B582B000AF0346FB7101220021002037
:10069400FFF79EFD002200210020FFF7A9FE0B4A70
:1006A400FB79D36000BF094B9B68DB0903F00103AE
:1006B400002BF8D1012200210020FFF799FE034B03
:1006C400DB68DBB218460837BD4680BD0030014008
:1006D40080B400AF054B1B68044A23F00403136085
:1006E40000BFBD465DF8047B704700BF10E000E02A
:1006F40080B483B000AF7860174A7B685360164BB0
:100704001B68154A23F002031360134B1B68124A3B
:1007140043F00103136000E000BF0F4B1B681B0C88
:1007240003F00103012BF7D10B4B1B680A4A23F09A
:1007340001031360084B1B68074A43F480331360BA
:10074400054B00225A60044B00229A6000BF0C370C
:10075400BD465DF8047B704710E000E080B500AF53
:10076400104B1B689847104B1B78012B11D10F4B72
:100774001B680E4A23F0020313600C4B1B680B4AE0
:1007840023F001031360094B00225A60074B002237
:100794009A60064B1B68054A43F48033136000BF1C
:1007A40080BD00BF1C0000202000002010E000E0FD
:1007B40080B500AF012201210020FFF719FEC820F7
:1007C400FFF796FF002201210020FFF711FE02200F
:1007D400FFF78EFF012201210020FFF709FEC82048
:1007E400FFF786FF002201210020FFF701FEC82049
:1007F400FFF77EFF012201210020FFF7F9FD0248E7
:10080400FFF776FF00BF80BD80A9030080B500AF6D
:10081400FFF7CEFF112000F059F80748FFF768FFF3
:100824003A2000F053F8052000F062F8292000F087
:100834004DF800BF80BD00BFE093040080B584B0D4
:1008440000AF78602A2000F041F8002000F050F852
:10085400002000F04DF8002000F04AF87F2000F05E
:1008640047F82B2000F032F8002000F041F8002077
:1008740000F03EF8002000F03BF89F2000F038F82C
:100884002C2000F023F80023FB8116E0FB895B0099
:100894007A6813441B881B0A9BB2DBB2184600F02B
:1008A40027F8FB895B007A6813441B88DBB218467F
:1008B40000F01EF8FB890133FB81FB89B3F5A04FDF
:1008C400E4D300BF00BF1037BD4680BD80B582B001
:1008D40000AF0346FB71002202210020FFF788FDD0
:1008E400FB791846FFF7CCFE00BF0837BD4680BD34
:1008F40080B582B000AF0346FB71012202210020C3
:10090400FFF776FDFB791846FFF7BAFE00BF0837FC
:10091400BD4680BD80B500AFFFF788FE00210020F2
:10092400FFF738FE0C210320FFF734FE01220121DA
:100934000020FFF74DFC012202210020FFF748FCB4
:10094400052205210020FFF7BBFC0522072100201A
:10095400FFF7B6FCFFF7BCFEFFF784FEFFF756FF78
:100964000148FFF76BFFFEE7240A00080D4885469F
:10097400AFF300800C480D490D4A002302E0D4581F
:10098400C4500433C4188C42F9D30A4A0A4C0023D5
:1009940001E013600432A242FBD300F011F8FFF728
:1009A400B9FFFEE700000120000000200000002045
:1009B4002CAA00080000002024000020FEE700000C
:1009C40070B50D4D0D4C641BA4100026A64209D130
:1009D4000B4D0C4C00F018F8641BA4100026A64222
:1009E40005D170BD55F8043B98470136EEE755F83C
:1009F400043B98470136F2E724AA000824AA000819
:100A040024AA000828AA0008F8B500BFF8BC08BC4E
:100A14009E467047F8B500BFF8BC08BC9E467047B8
:100A2400D8B5D8B5D8B5D8B5D8B5D8B5D8BDD8BD4A
:100A3400F8BDF8BDF8BDF8BDF8BDF8BDF9BDF9BD08
:100A4400F8BD18BE18C618C619C639C639C639C67F
:100A540039C619C619C619C639C639C639C65ACED1
:100A64005AC65AC65AC65ACE7ACE7ACE7ACE7BCED9
:100A74007BCE9BCE9BCE9BCE9BCE9BD69BD6BCD611
:100A8400BBD6BBD6BBD6BBD69BD69BCE9BCE9BCE72
:100A94007BCE7BCE7ACE7ACE7ACE7ACE7ACE7ACE10
:100AA4005ACE5ACE5ACE5ACE5ACE5ACE5ACE5AC60A
:100AB4005AC65AC65AC63AC639C619BE19BE19BE4E
:100AC40019BE19BE19BEF9BDF9BDF8BDF8B5F8B522
:100AD400F8B5F8B5F8B5F8B5F8B5F8B5F8B5F8B5AA
:100AE40018BE19BEF9BD19BE39C65AC65AC65AC669
:100AF4005AC65AC63AC639C63AC65AC65AC65AC653
:100B04007ACE19C65AC67AC63ABEBBCEFCD65ABEEF
:100B1400B8A5F9B57BC6FDD61DD79BCE39BE19BE87
:100B2400D8B5D8B5D8B5D8B5D8B5D8B5D8B5D8B559
:100B3400D8B5D8BDD8BDF8BDF8BDF8BDF9BDF9BD6F
:100B440018BE18BE18C618C619C639C639C639C65D
:100B540019C619C619C619C619C639C639C639C639
:100B64005AC65AC65AC65AC65ACE5ACE7ACE7ACE21
:100B74007ACE7ACE7BCE9BCE9BCE9BCE9BD6BBD65B
:100B84009BD69BD69BD69BD69BCE9BCE9BCE9BCEF9
:100B94007BCE7ACE7ACE7ACE7ACE7ACE7ACE7ACE10
:100BA4005ACE5ACE5ACE5ACE5ACE5ACE5AC65AC611
:100BB4005AC65AC65AC639C639C619BE19BE19BE4E
:100BC40019BEF9BDF9BDF8BDF8BDF8BDF8BDF8B55D
:100BD400F8B5F8B5F8B5F8B5F8B5F8B5F8B5F8B5A9
:100BE400F9BDF9BD19BE19BE39C65AC65AC65AC688
:100BF4005AC65AC65AC63AC639C63AC63AC639C693
:100C040019BE39C65AC65AC67AC6BCCE9BC6D8AD1A
:100C140097A5F8AD7ABEDCCE3EDF1DD79BC6F9B5ED
:100C2400D8B5D8B5D8B5D8B5D8B5D8B5D8B5D8B558
:100C3400D8B5D8B5D8B5D8BDF8BDF8BDF8BDF8BDA0
:100C440018BE18BE18C618C619C619C639C639C67C
:100C540019C619C619C619C619C619C639C639C658
:100C640039C63AC63AC63AC65AC65AC65AC65AC601
:100C74005AC65AC67ACE7ACE7ACE7BCE9BCE9BCE3D
:100C84009BCE9BCE9BCE9BCE9BCE9BCE9BCE9BCE18
:100C94007BCE7ACE7ACE7ACE7ACE5ACE7ACE7ACE2F
:100CA4005ACE5ACE5ACE5ACE5ACE5AC65AC65AC618
:100CB4005AC65AC63AC639C639C619BE19BE19BE6D
:100CC400F9BDF8BDF8BDF8BDF8BDF8BDD8B5F8B5A7
:100CD400F8B5F8B5F8B5F8B5F8B5F8B5F8B5F8B5A8
:100CE400F9BDF9BD19BE39C65AC65AC67AC67AC6FE
:100CF4005AC65AC639C639C639BE39BE39BE39C6CE
:100D040039C65AC65AC67AC69BCE9BC619B697A58B
:100D1400B8A5F9B59BC6FDD6FDD6DCCE7BC6F9B524
:100D2400D8B5D8B5D8B5D8B5D8B5D8B5D8B5D8B557
:100D3400D8B5D8B5D8B5D8BDF8BDF8BDF8BDF8BD9F
:100D440018BE18BE18C618C618C619C619C619C6BC
:100D540019C619C619C619C619C619C619C619C697
:100D640039C639C639C639C639C639C639C639C687
:100D740039C63AC65AC65AC65ACE7ACE7ACE7BCE2F
:100D84009BCE9BCE9BCE9BCE9BCE9BCE9BCE9BCE17
:100D94007ACE7ACE7ACE5ACE5ACE5ACE5ACE5ACEAF
:100DA4005AC65AC65AC65AC65AC65AC65AC65AC63F
:100DB4005AC65AC63AC639C639C619BE19BE19BE6C
:100DC400F8BDF8BDF8BDF8BDF8BDD8B5D8B5D8B5EF
:100DD400F8B5F8B5D8B5D8B5F8B5F8B5F8B5F8B5E7
:100DE400F9BD19BE19BE39BE5AC67AC67AC65AC6E4
:100DF4005AC65AC65AC65AC65AC63ABE5AC65AC617
:100E04007BC65AC67BC6BCCEBCCE3ABED8AD98A56E
:100E140019B619B69BC6DDCE7BC61AB619B6D8B5B7
:100E2400D8B5D8B5D8B5D8B5D8B5D8B5D8B5D8B556
:100E3400D8B5D8B5D8BDD8BDF8BDF8BDF8BDF8BD96
:100E4400F8BD18BE18BE18C618C618C618C619C6E6
:100E540019C619C619C619C619C619C619C619C696
:100E640039C639C639C639C619C619C619C619C606
:100E740039C639C639C63AC65AC65AC65ACE7ACEC1
:100E84007ACE7ACE7ACE7BCE7BCE7BCE7BCE7BCE19
:100E94007ACE7ACE7ACE5ACE5AC65AC65AC65AC6CE
:100EA4005AC65AC65AC65AC65AC65AC63AC63AC67E
:100EB4003AC63AC639C639C619BE19BE19BE19BED4
:100EC400F8BDF8BDF8BDF8BDD8B5D8B5D8B5D8B516
:100ED400D8B5D8B5D8B5D8B5D8B5F8B5F8B5F8BD3E
:100EE40019BE19BE39BE39C65AC67AC65AC65AC6BA
:100EF4005AC65AC65AC65AC65ABE39BE3ABE5AC647
:100F04007AC65AC6BBCEFCD67BC619B6F9ADB8A50F
:100F14003AB61AB65BBE7BBE19B6D8ADB8AD98A5C5
:100F2400D8B5D8B5D8B5D8B5D8B5D8B5D8B5D8B555
:100F3400D8BDD8BDD8BDF8BDF8BDF8BDF8BDF8BD65
:100F4400F8BDF8BDF8BD18BE18BE18C619C619C636
:100F540019C619C619C619C619C619C619C619C695
:100F640019C619C619C619C619C619C619C619C685
:100F740019C619C619C639C639C639C63AC63AC6D3
:100F84005ACE5ACE5ACE5ACE7ACE7ACE7ACE7ACE9D
:100F94005ACE5ACE5ACE5ACE5ACE5ACE39C639C65F
:100FA4003AC63AC63AC63AC639C639C639C639C641
:100FB40039C639C639C639C619BE19BE19BEF9BDF6
:100FC400F8BDF8BDF8BDF8BDD8B5D8B5D8B5D8B515
:100FD400D8B5D8B5D8B5D8B5D8B5F8B5F8B5F8BD3D
:100FE40019BE19BE39BE39C65AC67AC65AC65AC6B9
:100FF4005ABE5AC65AC65ABE5ABE5ABE5AC67ABEF5
:101004007AC69BC6BCCE7BC6D8ADD8ADF9ADB8A563
:10101400D9AD3AB67BBE3AB6B8A598A5B8AD98A5F1
:10102400D8B5D8B5D8B5D8B5D8B5D8B5D8B5D8B554
:10103400D8B5D8B5D8BDD8BDF8BDF8BDF8BDF8BD94
:10104400F8BDF8BDF8BDF8BDF8BDF8BDF8BDF8BDF4
:1010540019C619C619C619C619C619C619C619C694
:1010640019C619C619C619C6F9BDF9BDF9BDF9BD28
:10107400F9BDF9BD19C619C619C619C619C639C6A6
:1010840039C639C639C65ACE5ACE5ACE5ACE5ACE97
:101094005ACE5ACE5ACE5ACE5ACE5ACE39C639C65E
:1010A40039C639C639C639C639C639C619C619C684
:1010B40019C619C619C619BE19BE19BEF8BDF8BDA0
:1010C400F8BDF8BDD8B5D8B5D8B5D8B5D8B5D8B564
:1010D400D8B5D8B5D8B5D8B5D8B5F8B5F8B519BE1A
:1010E40019BE19BE19BE39C65AC67AC67AC65AC6B8
:1010F4005AC67AC67AC65ABE5ABE7BC67BC65ABE82
:101104001AB67BC65BBED8AD77A598A5B8A5B8A519
:10111400B8A51AB65BB61AAEB8A598A5B8A5D9AD48
:10112400D8B5D8B5D8B5D8B5D8B5D8B5D8B5D8B553
:10113400D8B5D8B5D8B5D8BDF8BDF8BDF8BDF8BD9B
:10114400F8BDF8BDF8BDF8BDF8BDF8BDF8BDF8BDF3
:1011540019C619C619C619C619C619C619C619C693
:10116400F9BDF9BDF9BDF9BDF9BDF9BDF8BDF8BDCD
:10117400F8BDF8BDF8BDF8BDF8BD19C619C619C645
:1011840019C639C639C639C65ACE5ACE5ACE5ACEDF
:101194005ACE5ACE5ACE5ACE5ACE5ACE39C639C65D
:1011A40019C619C619C619C619C619C619BE19BE53
:1011B40019BE19BE19BE19BE19BEF9BDF8BDF8BDD8
:1011C400D8BDD8BDD8B5D8B5D8B5D8B5D8B5B8B5C3
:1011D400D8B5D8B5D8B5D8B5D8B5F8B5F8B519BE19
:1011E40019BE19BE39BE59BE5AC67AC67AC65AC67F
:1011F40039BE5ABE3ABEF9B5F9AD19B619B6D8AD6D
:1012040077A5F9B5F9B598A5B8A5B8A5779D98A51A
:10121400F9ADF9ADD9ADD9ADD9ADB8A5B8A5B8A5D5
:10122400D8B5D8B5D8B5D8B5D8B5D8B5D8B5D8B552
:10123400D8B5D8B5D8BDF8BDF8BDF8BDF8BDF8BD72
:10124400F8BDF8BDF8BDF8BDF8BDF8BDF8BDF8BDF2
:10125400F8BDF8BDF9BDF9BDF9BD19C619C619C661
:1012640019C619C6F9BDF9BDF9BDF8BDF8BDF8BD7B
:10127400F8BDF8BDF8BDF8BDF8BD19C619C619C644
:1012840019C619C619C639C639C639C639C639C6C2
:1012940039C639C65ACE5ACE5ACE39C639C619C6F7
:1012A40039C619C619C619C619C619C619BE18BE33
:1012B40019BE19BEF9BDF9BDF9BDF9BDF8BDF8BD3A
:1012C400D8BDD8B5D8B5D8B5D8B5D8B5B8B5B7B5EB
:1012D400B8B5B8B5B8B5B8B5D8B5D8B5F8B5F8BDDA
:1012E40019BE39BE39BE39BE5AC67AC67AC65AC67E
:1012F4007AC67AC6F8AD769D77A598A597A598A5E0
:10130400B8AD98A598A598A5B8A5B8A598A598A589
:1013140098A598A5B8A5B8A5B8A5B8A5B8A5B8A521
:10132400D8B5D8B5D8B5D8B5D8B5D8B5D8B5D8B551
:10133400D8B5D8B5D8BDF8BDF8BDF8BDF8BDF8BD71
:10134400F8BDF8BDF8BDF8BDF8BDF8BDF8BDF8BDF1
:10135400F8BDF8BDF8BDF9BDF9BDF9BDF9BDF9BDDC
:10136400F9BDF9BDF9BDF9BDF8BDF8BDF8BDD8BDED
:10137400D8BDF8BDF8BDF8BDF8BDF8BD18BE18BE9F
:1013840018C618C619C639C639C639C639C639C6C3
:1013940039C639C639C659C659C639C639C619C631
:1013A40039C619C618C618C619C619C6F8BDF8BD77
:1013B400F8BDF9BDF8BDF8BDF8BDF8BDF8BDD8BDA0
:1013C400D8B5D8B5D8B5D8B5D8B5B8B5B7B5B7B513
:1013D400B8B5B8B5B8B5B8B5D8B5D8B5F8BDF8BDD1
:1013E40019BE39BE39BE39BE5AC67AC67AC65AC67D
:1013F400D8AD19B6D8AD97A597A5B8A598A5779DEA
:1014040098A598A598A598A598A598A598A598A5F0
:10141400B8A5B8A5B8A5B8A5B8A598A598A598A540
:10142400D8B5D8B5D8B5D8B5D8B5D8B5D8B5D8B550
:10143400D8B5D8B5D8BDF8BDF8BDF8BDF8BDF8BD70
:10144400F8BDF8BDF8BDF8BDF8BDF8BDF8BDF8BDF0
:10145400F8BDF8BDF8BDF8BDF8BDF8BDF9BDF9BDDE
:10146400F9BDF9BDF9BDF8BDF8BDF8BDD8BDD8BD0D
:10147400D8BDD8BDD8BDF8BDF8BDF8BDF8BDF8BD20
:10148400F8BDF8BD18BE18C618C619C619C639C69F
:1014940039C639C639C639C639C639C639C618C671
:1014A40018C618C618BE18BE18BEF8BDF8BDF8BDDB
:1014B400F8BDF8BDF8BDF8BDF8BDF8BDF8BDD8BDA0
:1014C400D8B5D8B5D8B5B8B5B8B5B8B5B7B5B7B552
:1014D400B8B5B8B5B8B5B8B5B8B5D8B5D8B5F8BD18
:1014E40019BE39BE39BE39BE39C65AC65AC65AC6DD
:1014F400D8ADD8AD97A5779D779D98A5989DB8A5AB
:10150400789D789D989D98A598A598A598A598A547
:1015140098A5B8A5B8A5B8A598A598A598A598A57F
:10152400D8B5D8B5D8B5D8B5D8B5D8B5D8B5D8B54F
:10153400D8B5D8B5D8B5D8BDF8BDF8BDF8BDF8BD97
:10154400F8BDF8BDF8BDF8BDF8BDF8BDF8BDF8BDEF
:10155400F8BDF8BDF8BDF8BDF8BDF8BDF8BDF8BDDF
:10156400F8BDF8BDF8BDF8BDF8BDD8BDD8BDD8BD2F
:10157400D8BDD8BDD8BDD8BDF8BDF8BDF8BDF8BD3F
:10158400F8BDF8BDF8BD18BE18BE18C618C618C6F2
:1015940018C618C618C619C639C619C618C618C634
:1015A40018C618BEF8BDF8BDF8BDF8BDF8BDF8BD45
:1015B400F8BDF8BDF8BDF8BDF8BDF8BDD8BDD8B5C7
:1015C400D8B5D8B5B8B5B8B5B8B5B8B5B7B5B7B571
:1015D400B7B5B7B5B7B5B7B5B8B5D8B5D8B5F8BD1B
:1015E40019B619BE19BE19BE39BE5AC65AC65AC64C
:1015F4005AC6D8B577A5779D779D779D789DB8A570
:10160400989D989D989D98A598A598A598A598A506
:1016140098A598A598A598A598A598A598A5B8A5BE
:10162400D8BDD8B5D8B5D8B5D8B5D8B5D8B5D8B546
:10163400D8B5D8B5D8B5D8B5D8BDF8BDF8BDF8BDBE
:10164400F8BDF8BDF8BDF8BDF8BDF8BDF8BDF8BDEE
:10165400F8BDF8BDF8BDF8BDF8BDF8BDF8BDF8BDDE
:10166400F8BDF8BDF8BDF8BDD8BDD8BDD8BDD8BD4E
:10167400D8BDD8BDD8BDD8BDF8BDF8BDF8BDF8BD3E
:10168400F8BDF8BDF8BDF8BDF8BD18BE18BE18BE4B
:1016940018BE18BE18BE18C618C618C618C618BE76
:1016A40018BEF8BDF8BDF8BDF8BDF8BDD8BDD8BDAD
:1016B400D8BDF8BDD8BDD8BDD8BDD8BDD8B5D8B56E
:1016C400D8B5D8B5B8B5B8B5B8B5B7B5B7B5B7B571
:1016D400B7B5B7B5B7B5B7B5B7B5B8B5D8B5D8B563
:1016E400F8B5F9BD19BE19BE39C63AC65AC65AC6A6
:1016F4007BC619BEB8AD98A598A598A5989D789D68
:1017040098A598A5789D779D98A598A598A598A53E
:1017140098A598A598A598A598A598A598A5B8A5BD
:10172400D8BDD8BDD8B5D8B5D8B5D8B5D8B5D8B53D
:10173400D8B5D8B5D8B5D8B5D8B5D8BDF8BDF8BDE5
:10174400F8BDF8BDF8BDF8BDF8BDF8BDF8BDF8BDED
:10175400F8BDF8BDF8BDF8BDF8BDF8BDF8BDF8BDDD
:10176400D8BDD8BDD8BDD8BDD8BDD8BDD8BDD8BDCD
:10177400D8BDD8BDD8BDD8BDD8BDD8BDD8BDD8BDBD
:10178400D8BDF8BDF8BDF8BDF8BDF8BDF8BDF8BDCD
:10179400F8BDF8BDF8BDF8BDF8C5F8C5F8BDF8BD8D
:1017A400F8BDF8BDF8BDF8BDF8BDF8BDD8BDD8BDCD
:1017B400D8BDD8BDD8B5D8B5D8B5D8B5D8B5D8B5AD
:1017C400D8B5B8B5B7B5B7B5B7B5B7B5B7B5B7B593
:1017D40097B597ADB7B5B7B5B7B5B7B5D8B5D8B5AB
:1017E400D8B5F8B519BE19BE39C63AC63AC65AC6EE
:1017F40039BE3ABE3ABEB8A5579D989DB9A5789D05
:10180400989D98A5989D989D989D98A5B8A598A5EC
:10181400B8A5B8A5B8A598A598A598A598A598A57C
:10182400D8BDD8BDD8BDD8B5D8B5D8B5D8B5D8B534
:10183400D8B5D8B5D8B5D8B5D8B5D8BDF8BDF8BDE4
:10184400F8BDF8BDF8BDF8BDF8BDF8BDF8BDF8BDEC
:10185400F8BDF8BDF8BDD8BDD8BDD8BDD8BDD8BD7C
:10186400D8BDD8BDD8BDD8BDD8BDD8BDD8BDD8BDCC
:10187400D8BDD8BDD8BDD8BDD8BDD8BDD8BDD8BDBC
:10188400D8BDD8BDF8BDF8BDF8BDF8BDF8BDF8BDEC
:10189400F8BDF8BDF8BDF8BDF8BDF8BDF8BDF8BD9C
:1018A400F8BDF8BDF8BDD8BDD8BDD8BDD7BDD8BD2D
:1018B400D8BDB7B5B8B5B8B5B8B5B8B5B8B5B8B595
:1018C400B8B5B7B5B7B5B7B5B7B5B7B597B597ADFB
:1018D40097AD97AD97ADB7B5B7B5B7B5B8B5D8B5FA
:1018E400F8B5F9B519BE39C639C63AC63AC63AC6C4
:1018F4003ABE5AC65ABED9AD579D789DB9A5989D92
:10190400789D98A5B9A5B8A598A598A598A5B8A5B2
:10191400B8A5B8A598A598A598A598A598A598A59B
:10192400D8BDD8BDD8BDD8BDD8BDD8B5D8B5D8B523
:10193400D8BDD8BDD8B5D8B5D8B5D8BDF8BDF8BDD3
:10194400F8BDF8BDF8BDF8BDF8BDF8BDF8BDF8BDEB
:10195400D8BDD8BDD8BDD8BDD8BDD8BDD8BDD8BDDB
:10196400D8BDD8BDD8BDD8BDD8BDD8BDD8BDD8BDCB
:10197400D8BDD8BDD8BDD8BDD7BDD7BDD7BDD7BDBF
:10198400D7BDD8BDD8BDF8BDF8BDF8BDF8BDF8BD0C
:10199400F8BDF8BDF8BDF8BDF8BDF8BDF8BDF8BD9B
:1019A400D8BDD7BDD7BDD7BDD7BDD7BDD7BDB7B5BA
:1019B400B7B5B7B5B7B5B7B5B7B5B7B5B7B5B7B5C3
:1019C400B7B5B7B5B7B597B597B597B597AD97AD63
:1019D40097AD97AD97AD97AD97ADB7B5B7B5B8B56A
:1019E400F8B5F9BD19BE39C65AC63AC63AC63AC69A
:1019F4009BCE5AC65BBE3ABEB8A5989D98A5989D45
:101A0400789DB9A5F9ADD9AD98A5979D98A5B8A528
:101A140098A598A598A598A598A598A598A598A5DA
:101A2400D8BDD8BDD8BDD8BDD8BDD8BDD8BDD8BD0A
:101A3400D8B5F8BDD8BDD8BDD8BDD8BDD8BDD8BDE2
:101A4400F8BDF8BDF8BDF8BDF8BDF8BDF8BDF8BDEA
:101A5400F8BDF8BDF8BDF8BDF8BDF8BDF8BDF8BDDA
:101A6400D9BDD9BDF9BDF9BDF9BDD8BDD8BDD8BD65
:101A7400D8BDD8BDD8BDD8BDD8BDD8BDF7BDF8BD7B
:101A8400F8BDF8BDF8BDF8BDF8BDF8BDF8BDD8BDCA
:101A9400D8BD19C6F8BDD8BDD8BDF8BDF8BDB8BD10
:101AA400F8BDD7BDB7B5B7B5D8BDD8BDB8B5B7B50E
:101AB400D8BD97B5B7B5B7B597B5B7B5B7B5B7B5D9
:101AC400B7B597B597B5B7B597B597B597B597AD7A
:101AD40097AD97AD97AD97AD97AD97ADB7B5D7B572
:101AE40018BEF8BD19BE39C65AC63ABE3ABE3ABE89
:101AF4007BC67BC67BBE3ABED8AD77A597A5B8ADED
:101B04001AB63AB61AAEB8A5779D989D98A5989D31
:101B140098A598A598A598A598A598A598A598A5D9
:101B2400F8BDD8BDD8BDD8BDD8BDD8B5D8B5D8B501
:101B3400D8B5D8BDD8BDD8BDD8BDD8BDD8BDD8BD01
:101B4400D8BDD8BDD8BDF8BDF8BDF8BDF8BDF8BD49
:101B5400F8BDF8BDF8BDF8BDF8BDF8BDF8BDF8B5E1
:101B6400D9BDD9BDD9BDF9BDD8BDD8BDD8BDD8BDA5
:101B7400D8B5D8B5D8BDD8BDF8BDF8BDF8BDF8BD49
:101B8400D8BDF8BDF8BDF8BDF8BDF8BDF8BDD8BDE9
:101B9400D8BDD8BDD8BDF8BDF8BDB7BDD8BDF8BD5A
:101BA400D7BDD7BDD7BDD7BDD8BDB7B5B7B5B7B508
:101BB400B7B597B5B7B5B7B596B5B7B597B5B7B522
:101BC40096B596B597B597B597B597B597B597ADBB
:101BD40097AD77AD97AD97AD97AD97ADB7B5D8B590
:101BE400F8BD18BE39C65AC63ABE19B6F9B5D9AD4C
:101BF4005ABE3AB6F9B5F9B5D8ADB8A5B8A5D8ADB9
:101C04001AAEF9ADD9AD98A5779D98A598A5989DDC
:101C140098A598A598A598A598A598A598A598A5D8
:101C2400D8BDD8BDD8B5D8BDF8BDF8BDF8BDF8BD90
:101C3400D8B5F8BDF8BDD8BDD8BDF8BDD8BDD8BDA0
:101C4400D8BDD8BDD8BDF8BDF8BDF8BDF9BDF9BD46
:101C5400F9BDF8BDF8BDF8BDF8BDF8BDF8BDF8BDD7
:101C6400D8BDD8BDD8BDD8BDD8BDD8BDD8BDD8BDC8
:101C7400D8BDD8BDD8BDD8BDF8BDF8BDF8BDF8BD38
:101C8400D8BDD8BDD8BDF8BDF8BDF8BDD8BDD8BD48
:101C9400D8BDD7BDB7BDD7BDF8BDD8BDB7B5D7BDC5
:101CA400D7B5D7BDD7BDD7B5B7B5B7B5B7B5B7B540
:101CB400B7B5B7B5D7B5B7B597B5B7B596B5B7B5E1
:101CC400B7B596B596B576AD76AD97B597B576AD0D
:101CD40097AD97AD97AD97AD97AD97ADB7B5D8B56F
:101CE400F8BD18BE19BE19BE19B6F8B5F9B5F9B5DF
:101CF400F9B5D9ADB8A5B8A5B8AD98A5B8A5B8A596
:101D0400F9ADB8A598A5779D779D98A598A5989DB8
:101D140098A598A598A598A598A598A598A598A5D7
:101D2400F9BDF9BDF9BDF9BD19BE19BE19BE19BE7B
:101D3400F9BDF9BDF9BDF8BDF8BDF9BDF9BDF8BDF2
:101D4400F9BDF9BDF9BDF9BDF9BDF9BDF9BDF9BDDF
:101D5400F9BDF9BDF8BDF8BDF8BDF8BDF8BDF8BDD5
:101D6400F9BDF9BDD8BDD8BDD8BDD8BDD8BDD8BD85
:101D7400D8BDD8BDD8BDF8BDF8BDF8BDD8BDD8BD57
:101D8400D7BDD7BDD8BDD8BDD8BDD8BDD8BDD8BDA9
:101D9400D7BDF8BDF8BDB7B5D7BDF8BDD7BDB7B58C
:101DA400D7BDD7BDB7B5B7B5B7B5B7B5B7B597B59F
:101DB40097B597B5B7B596B596B5B6B596AD96B58C
:101DC40096B576AD96B596B596AD76AD76AD76AD5F
:101DD40097AD77AD97AD97AD97AD97ADB7B5D8B58E
:101DE400D8B5F9BD19BEF9B5D8B5F8B5F9B5F9B591
:101DF40097A598A598A598A598A598A598A598A5F8
:101E0400B8A598A5779D779D989D989D779D989D59
:101E1400989D989D989D989D98A598A598A598A5F6
:101E24003AC63ABE19BE19BE19BEF9B5F9B5F9B527
:101E340019BE19BEF9BDF9BDF9BD19BEF9BDF9BD8B
:101E4400F9BDF9BDF9BDF9BDF9BDF9BDF9BDF9BDDE
:101E5400F9BDF9BDF9BDF9BDF9BDF9BDF8BDD8BDF0
:101E6400D8BDD8BDD8BDD8BDD8BDD8BDD8BDD8BDC6
:101E7400D8BDD8BDD8BDD8BDD8BDD8BDD7B5D7B5C8
:101E8400D7BDD7BDD7BDD7BDD8BDD7BDD7BDD8BDAC
:101E9400D7BDD7BDF8BDD7BDB6B5D7BDD7BDD7BDA6
:101EA400B6B5D7BDD7BDB7B5B7B5B7B5B7B5B7B57F
:101EB400B7B596B596B576AD96B596B555AD75AD3F
:101EC400B6B576AD96B597B596B576AD76AD97B50C
:101ED40077AD77AD77AD97AD97AD97ADB7B5B8B5ED
:101EE400D8B5F8BD19BE19BEF9B5F8B5D8AD98ADD9
:101EF40098A598A598A598A577A577A598A598A538
:101F040098A5779D779D98A598A5779D779D98A589
:101F140098A598A598A598A598A598A598A598A5D5
:101F24001ABE1ABEF9B5F9B5D8B5D8B5D8ADD8AD7D
:101F3400F8B5F9B5F9BD19BE19BE19C6F9BDF9BD93
:101F4400F9BDF9BDF9BDF9BDF9BDF9BDF9BDF9BDDD
:101F540019C6F9C5F9BDF9BDF9BDF9BDF8BDF8BD9E
:101F6400F8BDF8BDD8BDD8BDD8BDD8BDD8BDD8BD85
:101F7400D8BDF8BDD8BDD8BDD7BDD7B5D7B5D7B5B1
:101F8400D7BDD7BDD7BDD7BDD7BDD7BDD8BDF7BD8C
:101F940018C655AD96B5D7BDD7BDF7BDD7BDD7BD0E
:101FA40034A596B5F7BDF7BDB6B5B6B5B6B5D7BDCC
:101FB400B6B5B6B596B575AD95B575AD34A575AD73
:101FC400DBDE18C675AD55AD75AD76B596B576AD97
:101FD40076AD77AD97AD97AD97AD97ADB7B5D8B5AD
:101FE400D8BDF8BD19BEF9BDF9B5D8B5D8B5B8ADE9
:101FF400B8ADB8AD98A577A577A598A598A577A508
:10200400779D779D779D97A597A5779D779D779DDC
:10201400779D779D779D97A597A598A598A598A551
:10202400F9B5D9ADD9ADB8ADB8ADB8ADB8ADB8ADF9
:10203400D8ADD8B5D8B5D8B5F9BD19BE19BEF9BD56
:10204400F9BDF9BDF9BDF9BDF9BD19BE19C619C669
:1020540019C619C6F9C5F9C5F9C5F9C5F9C5F9C54A
:10206400F8BDF8BDF8BDF8BDD8BDD8BDD8BDD8BD44
:10207400F8BDF8BDD8BDD7BDD7BDD7BDD7BDD7BD79
:10208400D7BDD7BDD7BDD7BDD7BDD7BDF7BDF7BD6C
:10209400B6B5B29454AD17C617C638C6F7BDB6B5B3
:1020A40054ADB6B517C6F7BDD6BDB6B5D6BDD6BD0B
:1020B400D6BDB6B596B595B5B5B575AD54A5D6BD71
:1020C400BEF7FBDE17C696B575AD96B596B576AD7B
:1020D40076AD76AD77AD97ADB7B5B7B5B8B5D8BD74
:1020E40019BE19BE19C639C619BEF9B5F9B519BE56
:1020F400D9B5D9ADD9AD98A577A578A578A577A593
:10210400779D779D779D779D779D779D779D779D2B
:10211400779D779D779D97A597A598A598A598A550
:10212400F9ADD9ADD9ADB9ADB8ADD9ADD9ADD8AD9D
:10213400D8ADD8ADB8ADB8ADD8B5F9BD19BE19BED6
:10214400F9BDF9BDF9BD19BE19BE19BE19BE19C62E
:1021540039C619C619C619C619C619C619C619C663
:10216400F8C5F8BDF8BDF8BDF8BDD8BDF8BDF8BDDB
:10217400F8BDD8BDD7BDD7BDD7BDD7BDD8BDD8BD97
:10218400D8BDD7BDD7BDD7BDD7BDD7BDF7BDF7BD6A
:10219400D39C508C96B558CEF7BD17C6F7BD95B5F0
:1021A400D6B5F7BD17C617BEF7BDF7BDD7BDD6BDAB
:1021B400D6BDB6B5B6B5B6B5B6B575AD74AD37C69C
:1021C4003CE75CEF3CEF79D696B575AD96B596B520
:1021D40096AD76AD97B597B5B7B5B8B5D8B5F8BDE2
:1021E40019C63AC67ACE9BCE5AC619BE19BE3ABE95
:1021F400D9B51ABE3ABEF9B598A577A578A578A53C
:10220400779D779D779D579D779D779D779D779D4A
:10221400779D779D779D779D97A598A598A598A577
:10222400D9ADD9ADD9ADD9ADD9ADB8A5B8A5B8ADED
:10223400B8ADB8ADD8ADB8ADD8B5F9B519BEF9B526
:10224400B8ADD8B5F9BD19BE19BE19BE19BE19C6A7
:1022540019BE5ACE7ACE39C619C639C639C639C658
:1022640019C619C619C6F8BDF8BDF8BDF8BDD8BD64
:10227400D8BDF8BDF8BDD8BDD8BDD8BDD8BDD8BD72
:10228400D7BDD8BDD7BDD7BDF8BD18C6D7BDF39C43
:102294009194719495B538CE17C638C617C617C62B
:1022A400F6BDF7BDF7BDF7BDF6BDF6BDD6BDD6BDCF
:1022B400D6BDB6B5D6B5D6BD75ADB6B554A578CE32
:1022C4005CEF3CE73CEF1BE7DADEF7BD55AD76ADDE
:1022D40096B597B5B7B5B7B5B7B5B8B5F8BD19BE26
:1022E40019C639C67ACE7ACE5AC619BEF9BD19BEF8
:1022F400F9B5B8ADF9B5F9B598A598A598A5579DC0
:10230400779D779D779D779D779D779D779D779D29
:10231400779D779D97A598A598A598A597A597A526
:10232400D9ADD9ADD9ADB9ADD9ADD9ADD9ADD9AD99
:10233400D9ADD9ADD9ADD8ADD9ADF9B5F9B5D9B512
:10234400B8ADD8B5F9B519BE19BE39BE3ABE3AC64C
:102354005AC67ACE9BCE7ACE39C639C639C639C664
:1023640019C619C619C6F9BDF8BDF9BDF8BDF8BD41
:10237400F8BDF8BDF8BDF8BDF8BDF8BDF8BDD8BDD1
:10238400D8BDD8BDD8BDF8BDD7BDD7BD14A57294EE
:102394009294919495B538C617C637C617C617C612
:1023A400F6BDF6BDF6BDF7BDF6BDF6BDD6BDD6BDD0
:1023B400D6BDB6B5B6B5D6B595ADB5B554AD99D609
:1023C4005CEF1BE71BE73CE73CE79AD696B596B56E
:1023D40076B596B597B5B7B5B7B5B7B5D8BDF8BDA9
:1023E40039C65ACE39C639C619BEF8BDF8BDD8B5F6
:1023F400D8B5B8ADF9B5F9B598A578A577A5779D01
:10240400779D779D779D779D779D779D779D779D28
:10241400779D779D97A597A598A598A598A598A524
:10242400D9ADB9ADB9ADB9ADB9ADD9ADD9A5D9AD00
:10243400D9ADD9ADD9ADB8ADD9ADD9ADD8ADB8ADAB
:10244400D8ADD8ADD8B5F9B519BE39BE3ABE3AC67D
:102454003ABE39BE7ACEBBD67ACE5AC65AC67ACEE0
:102464005ACE5ACE3AC619C619BE19BE19BEF8BDFF
:10247400F8BDF8BDF8BDF8BDF8BDD8BDD8BDD8BD10
:10248400D8BDD8BDD8BDF8BDD8BDB7B5B294718C90
:10249400B294919495B538C617C637C617C617C6F1
:1024A400F6BDF6BD17BEF7BDF6BDF6BDD6BDD6BDAD
:1024B400F6BDB6B5B5B5B6B595B595B574ADDADEB8
:1024C4005CEF1BE7FBE63BE73CEFFBE696B576AD3E
:1024D40096B596B5B7B5B7B5D7B5D8BDD8BDF8BD1F
:1024E40018C619C6F8BDF8BDF8BD19BE19BEF9BDA8
:1024F400B8B597ADD9B5D9AD98A577A5779D789D91
:10250400779D779D779D779D779D779D779D779D27
:10251400779D779D779D97A598A598A598A598A54B
:10252400B9ADB9ADB9ADB9ADB9ADD9A5D9ADD9AD1F
:10253400B8A5D9A5D9ADD8ADD9ADD9ADB8ADB8ADDB
:10254400D9ADB8ADB8ADD8ADD9B5F9B519BE19BEC8
:10255400D8B5B8AD3ABEBBCE9BCE7AC67BC65AC6FA
:102564007BCE7BCE5AC63AC619BE19BEF9BDF8BD9C
:10257400F8BDF8BDF8BDF8BDF8BDF8BDD8BDD8BDEF
:10258400D7BDD8BDD7BDD8BDF8BDD7BD9294B29440
:10259400B294919495B538C617C637C617C617C6F0
:1025A40017BE17BE17C617BEF7BDF6BDF6BDD6BD1E
:1025B400F6BDB6B5B5B5B6B595B595B5B5B51BDF2C
:1025C4005CEF3BEF1BE71BE71BE71BE796B596B5F4
:1025D400B6B5B7B5B7BDD8BDF8BD18BE18C618C6D0
:1025E40018C6F8BD18BE39C65ACE5AC65ACE7ACEC7
:1025F400D8B577A598ADB8AD98A577A5779D779D03
:10260400779D779D779D779D779D779D779D97A5FE
:10261400779D779D779D97A597A598A598A598A54B
:10262400B9ADB9ADB9ADB9ADD9ADD9ADD9ADD9ADF6
:10263400B8A5B8A5D9A5D9ADD9ADD9ADD9ADD9ADC0
:10264400D9ADD9ADB9ADB9ADD9ADD9ADF9B5D9AD6E
:10265400D9B5B8AD19BE7BC65BC65BC65AC619BE32
:1026640019BE19BE1ABE19BE19BE19BE19BEF9BDCE
:10267400F8BDF8BDF8BDF8BDF8BDD8BDD8BDD8BD0E
:10268400D8BDF8BDD8BDB7BDF7BDB7BD929492947F
:10269400B294719495B538CE37C637C617C617C6E7
:1026A40017C617C617C617C6F7BDF7BDD6BDD6BD24
:1026B400D6BDB6B5B6B5B6BD95B575B5B6BD1BE751
:1026C4003BEF3BEF1BE73BE71BE71CE7D7BDB6B58A
:1026D400B7BDD7BDF8BD18C639C659CE7ACE7ACEA5
:1026E4009AD65ACE7ACEBBD6BBD67ACE9ACEBBD6A3
:1026F400F9BD97AD97AD97A597A577A5779D779DDC
:10270400779D779D779D779D77A577A577A577A505
:1027140077A577A577A577A577A577A577A577A5D5
:10272400B9ADB9ADB9ADB9ADD9ADD9ADD9ADD9ADF5
:10273400D9A5D9A5D9ADD9ADD9A5B8A5B8A5D9ADCF
:10274400DAADDAADB9ADB9ADD9ADD9ADD9ADD9AD93
:10275400D9ADD9ADF9B51AB61AB63ABE3ABEF9B57D
:10276400D9B5F9B5F9B5F9B519BE19BE19BE19BE71
:10277400F9BDF9BDF8BDF8BDF8BDF8BDD8BDD8BDEB
:10278400D8BDF8BDF8BDD7BDF8C596B5929492945E
:10279400B294718C95B538CE38CE38CE17C617C6DC
:1027A40017C617C617C617C6F7BDF7BDD6BDD7BD22
:1027B400D6BDB6BDB6B5B6B595B575ADD6BD3CE717
:1027C4003BE73BEF1BE73CEF1CE73CEF58CEB6B5CD
:1027D400F7BDF8BD18C659CE5ACE9AD6BBD6DBD6AD
:1027E400DBDEBBD69BD6BBD69AD67ACE7ACEDBD6E8
:1027F4005AC6F9B5B8AD97A577A598A5779D779DE5
:1028040077A577A577A577A577A577A577A577A5E4
:1028140098A577A577A577A577A577A577A577A5B3
:10282400B9ADB9ADB9ADB9ADD9ADD9ADD9A5D9ADFC
:10283400D9ADD9A5D9A5D9ADD9A5B9A5B9A5D9ADCC
:10284400BAADDAADDAADBAADBAADD9ADDAADD9ADAE
:10285400B9ADD9ADD9ADD9ADD9ADF9B5FAB5F9B5EB
:10286400F9B5FAB5F9B5F9B5F9B519BE19BE19BE78
:1028740019BEF9BDF8BDF8BDF8BDF8BDF8BDF8BD89
:10288400F8BDD8BDF8C5D8BD18C635A5B294B29464
:10289400B294719495B538CE37C637C617C617C6E5
:1028A40017C617C617C6F7C5F7BDF7BDD7BDD7BD41
:1028B400B6BDD6BDB6B595B595B575ADF7C55CEFE6
:1028C4003BE73BEF1BE73CEF1CE71BE7BAD6D7BD62
:1028D40018C639CE59CE79CE79CE7ACE9AD69AD632
:1028E4009AD69AD67ACE7ACE5ACE7ACE9AD6BBD603
:1028F4007AC639BEF8B597A577A598A5779D779D33
:1029040077A577A577A577A577A577A577A577A5E3
:1029140097A597A597A577A577A597A597A597A513
:10292400B9ADB9ADB9ADB9ADD9ADD9ADD9A5D9A503
:10293400D9A5D8A5D9A5D9A5D9A5B9A5B9A5D9ADDC
:10294400BAA5BAADBAADBAADBAADBAADDAADDAAD13
:10295400DAADDAADFAB5F9ADFAB5D9ADD9ADFAB5A6
:10296400F9B5F9B5F9B5D9B5D9B5F9B519BE19BEE1
:1029740019BE19BEF8BDF8BDF8BDF8BDF8BDF8BD67
:10298400F8C5D8BDF8BDD8BD18C6D39C9294B29CE6
:10299400D29C919475B538CE17C637C617C617C6DC
:1029A400F7C5F7C517C6F7BDF7BDD7BDD7BDD6BDAB
:1029B400B6B5D6BDB6B595B595B575AD17C65CEFCC
:1029C4001BE73BEF1BE73CEF1BE71BE73CE759CE5C
:1029D40059CE79CE7ACE7ACE59CE39C638C639C6D2
:1029E40039C659CE5ACE39CE59CE9ACEBBD69BD6FD
:1029F4005AC65AC619BE97A577A577A5779D779D20
:102A040077A577A577A5779D779D77A577A577A5F2
:102A140097A597A577A577A577A597A597A597A532
:102A2400B9ADB9ADB9ADB9ADB9ADB9ADB9ADB9AD72
:102A3400D9ADD9ADD9ADD9ADD9ADD9ADD9ADD9AD62
:102A4400B9ADB9ADB9ADB9ADB9ADDAADDAADDAADEF
:102A5400DAADDAADDAADDAADDAADDAADFAB5FAB5EA
:102A6400F9B5F9B5F9B5F9B5F9B5F9B5F9B5F9B5F2
:102A74003ABE19BEF9BDF9BDF9BDF9C5F9BDF9BD37
:102A8400F9BD19BEF9BD3AC6B7B593949294B39CF7
:102A9400B29C929475B558CE18C638CE17C618C6CF
:102AA40016C616C636C616BE16BEF6BDF6BDF6BDAD
:102AB400F5BDD5B5D5B5D5B5B4B574AD99D65BEF7F
:102AC4003AE73AE73AE73BE71BE71BEFFBE6FBE6AF
:102AD40038CE59D69AD69AD659CE38C618BE38C6E4
:102AE40038C638C658CE38CE38CE58CE79D69AD6CF
:102AF4009AD69AD659C6B8AD77A597A598A5979DA5
:102B040097A577A577A577A597A597A597A597A541
:102B140097A597A597A597A597A597A597A597A5D1
:102B2400D9ADD9ADD9ADD9ADD9ADD9ADD9ADD9AD71
:102B3400D9ADD9ADD9ADD9ADD9ADD9ADD9ADD9AD61
:102B4400B9ADB9ADB9ADB9ADB9ADDAADDAADDAADEE
:102B5400DAADDAADDAADDAADDAADDAADFAB5FAB5E9
:102B6400F9B5F9B5F9B5F9B5F9B5F9B5F9B5F9B5F1
:102B740019B61ABE3AC63AC63AC6F9BDF9BDD9BDA8
:102B840039BE18BEF8BDF8BD14A5929413A5D29C05
:102B9400D29C919475AD58CE38C658CE18C638C656
:102BA40017C617C617C6F7C5F7BDF7BDF7BDF7BDFE
:102BB400D6BDB6BDB6B5B6BD96B575B59ADE3CEF15
:102BC4003BE73BE73BEF3BEF3BEF1BE71BE71BE739
:102BD400DADE9AD679D679CE9AD699CE38C6F8BDA9
:102BE40038BE38C638C638C659CE79CE9AD69AD6A3
:102BF4007ACE9BD67BCE19B697AD97A597A598A507
:102C040097A597A597A597A597A597A597A597A5E0
:102C140097A597A597A597A597A597A597A597A5D0
:102C2400D9ADD9ADD9ADD9ADD9ADD9ADD9ADD9AD70
:102C3400D9ADD9ADD9ADD9ADD9ADD9ADD9ADD9AD60
:102C4400B9ADB9ADB9ADB9ADB9ADDAADDAADDAADED
:102C5400DAADDAADDAADDAADDAADDAADDAADFAB510
:102C6400FAB5FAB5FAB5FAB5FAB5F9ADF9ADF9B5FB
:102C7400F9B5F9B5F9B5F9BD19BE3AC63AC63AC6B9
:102C840018BE38C695ADF39CB2949194D29CD2945C
:102C9400D29C919474AD78CE38C658C637C637C620
:102CA400F8C5F8C5F8C5F8C5F7BDD7BDD7BDD7BDBC
:102CB400D7BDB7BDB7BDB7BD96B596B5BBDE3DEFC5
:102CC4003CE73CE73CE73BEF3BE73BE71BE71BE725
:102CD4001BE7FADEBAD699D679CE79CE38C6F8BDD6
:102CE40018BE18BE18BE38C659C659CE59CE59CECC
:102CF4005AC69BCE9BCE19BEB8AD97A597A597A5EE
:102D040097A597A597A597A597A597A597A597A5DF
:102D140097A597A597A597A5B7A5B7A5B7A5B7A54F
:102D2400D9ADD9ADD9ADD9ADD9ADD9ADD9ADD9AD6F
:102D3400D9ADD9ADD9ADD9ADD9ADD9ADD9ADD9AD5F
:102D4400DAADDAADB9ADDAADDAADDAADDAADDAAD68
:102D5400DAADDAADDAADDAADDAADDAADDAADFAB50F
:102D6400FAADFAADFAADFAADFAADF9ADF9ADF9AD2A
:102D7400D9ADF9B5F9B5F9B5F9BDF9BDF9BDF9BDE7
:102D840018C638C634A59294D39CD39CB29CD29CCA
:102D9400D29C919454A558CE38C658C638C637BE6E
:102DA40018C618C617C6F7BDF7BDF6BDF6BDF6BD05
:102DB400F6BDD6BDD6BDB6B596B5B6B5DBDE3CEF31
:102DC4003CE73CEF3CEF3CEF3BE73BE73BE73BE7D3
:102DD400FADE1AE71BE7FADE99D658C618C618C6F3
:102DE400F8B5F8B5F8B5F8BD19BE39C639C63AC64E
:102DF4005AC65AC619BED8B5B8AD98AD98A597A508
:102E040097A597A597A597A597A597A597A597A5DE
:102E140097A597A597A597A597A597A5B8ADB8AD7C
:102E2400D9ADD9ADD9ADD9ADD9ADD9ADD9ADD9AD6E
:102E3400D9ADD9ADD9ADD9ADD9ADD9ADD9ADD9AD5E
:102E4400DAADDAADDAADDAADDAADDAADDAADDAAD46
:102E5400DAADDAADFAADFAADDAADFAADFAADFAAD96
:102E6400FAADFAADFAADFAADFAADFAADF9ADF9AD28
:102E7400F9ADF9B5F9B5F9B5D8B5D8B5F9B5F9BD20
:102E8400B8BD36ADB49CB4A4B3A4B3A4D3A4929CEB
:102E9400B29C919434AD58CE38C638C638C617C6DD
:102EA40037BE37BE37BE37BE16BE16BEF6B5F6B54C
:102EB400F6B5F6B5D6B5D6B5B5ADD6BD1BDF5BE771
:102EC4001DEF1DEF3CEF1CE73BE73BE73AE73AE732
:102ED4001ADF1AE73AE71BE7FADEBAD679CE39C623
:102EE400F8BDF8B5F8B5F8B5F8B519BE39BE5AC687
:102EF40019BEF9B5B8AD97AD97ADB8AD98AD77A596
:102F040097A597A597A597A597A597A597A597A5DD
:102F140097A597A5B8ADB8ADB8ADB8ADB8ADB8ADD7
:102F2400D9ADD9ADD9ADD9ADD9ADD9ADD9ADD9AD6D
:102F3400D9ADD9ADD9ADD9ADD9ADD9ADD9ADD9AD5D
:102F4400DAADDAADDAADDAADDAADDAADFAADFAAD05
:102F5400FAADFAADFAADFAADFAADFAADFAADFAAD35
:102F6400FAADFAADFAADFAADFAADFAADFAADF9B51E
:102F7400F9B5D9ADD8ADD8ADF8B5F9B5D8B597ADE3
:102F8400D5A4949C739CB4A4B4A4939C929CB3A421
:102F9400B2A4919C13AD58CE57CE37CE37CE37C698
:102FA40017BE17BE17BE17BE17BE17BE17BE17BE75
:102FB400F6B5D6B5D6B5D6B595B5F6BD3BE73BE780
:102FC4001DEF1CEF3CEF1CE73BE73BE73BE73AE731
:102FD4001ADF1AE71AE71BE71BDFDADEBAD69AD63E
:102FE4007ACE7ACE59C618BEF8BDD8B5D8B5D8B5FC
:102FF400B8ADB8ADB8AD97AD97AD97AD97AD97AD4A
:1030040097A597A597A597A597A597A597A597A5DC
:10301400B8ADB8ADB8ADB8ADB8ADB8ADB8ADB8AD84
:10302400F9B5F9B5F9B5F9B5F9B5F9B5F9ADD9AD5C
:10303400F9ADD9ADD9ADD9ADD9ADD9ADD9ADD9AD3C
:10304400DAADDAADDAADDAADFAADFAADFAADFAADC4
:10305400FAADFAADFAADFAADFAADFAADFAADFAB52C
:10306400FAADFAADFAADFAADFAADFAB5F9B5F9B50E
:10307400F9B5F9B5F8B5F9B5F8B597ADF59C938CF4
:10308400939CB4A4B3A4B39CF4A4B3A4929CF3A45B
:10309400D2A4919C13A557CE57CE37CE57CE36C661
:1030A40017C617C617C617C6F7BDF7BDF7BDF7BDD8
:1030B400D7BDD6BDD7BDB6BD95B5F7C55CEF3CEF62
:1030C4001CEF3CEF3CEF3BEF3BEF3BE73BE75AE7C2
:1030D40019DF1AE73AE71AE7FAE6DADEDADEDADEC9
:1030E400FADEDADEBAD699CE59C618BED7B5B7B568
:1030F400B7ADB7ADB7ADB7ADB7ADB8AD97ADB8ADCA
:10310400B8ADB8ADB8ADB8ADB8ADB8ADB8ADB8AD93
:10311400B8ADB8ADB8ADB8ADB8ADB8ADB8ADB8AD83
:10312400F9B5F9B5F9B5F9B5F9B5F9B5F9B5F9B52B
:10313400F9B5F9ADF9ADF9ADF9ADF9ADD9ADD9AD93
:10314400DAADDAADDAADDAADDAADFAB5FAB5FAB5CB
:10315400FAB5FAB5FAB5FAB5FAB5FAB5FAB5FAB5F3
:10316400FBB5FAB5FAB5FAB5FAB5F9B5F9B5F9B5E5
:10317400F9B519BEF8B576A5D494938CB394F49CA0
:10318400F29CD294139DF39CB194F29C139DB19440
:10319400D29C919412A557CE57CE37C657CE17C698
:1031A40017C617C617C617C6F7C5F7C5F7C5F7C5B7
:1031B400D7BDD6BDD6BDB6BD95BD17CE5CF71CEF49
:1031C4003BEF3BEF3BEF3BEF3BEF3BEF3BE73BE7BB
:1031D4001AE71AE71AE71AE7FAE6DAE6B9E6B9DE11
:1031E400D9E6D9DED9DEDADEDADE99D658CE18C6CB
:1031F400D7B5B7B597ADB7ADB8ADB8ADB8ADB7AD98
:10320400B7ADB7ADB7ADB7ADB7ADB8ADB8ADB8AD97
:10321400B8ADB8ADB8ADB8ADB8ADB8ADB8ADB8AD82
:10322400F9B5F9B5F9B5F9B5F9B5F9B5F9B5F9B52A
:10323400F9B5F9B5F9B5F9B5F9B5F9ADF9ADF9AD32
:10324400DAADDAADDAADDAADDAADDAADDAADFAB51A
:10325400FAB5FAB5FAB5FAB5FAB5FAB5FAB5FAB5F2
:10326400FAB51AB61AB6F9B5D9B519B63ABEF9BD52
:10327400B7AD55A5D4949394B394D394F49CF49C8F
:10328400F294F294F294F294F294F294F294F2940A
:10329400F39CB294D39C59CE59C639C638C638C6A5
:1032A40037C637C638C638C617C617C617C6F7BDD9
:1032B400F7C5D6BDD6BDB6BD95B558D65CF73BEFC0
:1032C4003AEF3AEF3AEF1AE75BEF3BEFFAE65BEFE0
:1032D4001BE7FAE6FAE61AEF3BEFFAEE98DE98DE21
:1032E40077DE56DE98E677DEB8DE57D6D9DEDADE4C
:1032F400B9D679CE38BEB7ADB7ADB7AD97A5D8AD11
:10330400B7ADB8ADB8ADB8ADD8ADD8B5D8ADB8AD2A
:10331400B8ADB8ADB8ADB8ADD8ADD8ADD8ADB8AD21
:10332400F9B5F9B5F9B5F9B5F9B5F9B5F9B5F9B529
:10333400F9B5F9B5F9B5F9B5F9B5F9B5F9B5F9B519
:10334400FAB5FAB5FAB5FAB5FAB5FAB5FAB5FAB501
:10335400FAB5FAB5FAB5FAB5FAB5FAB5FAB5FAB5F1
:10336400FAB5D9B5D9B51ABE3ABEF9BDB8B535A5C1
:10337400D394D394B394B394D39CD39CD39CB39459
:10338400F294F294F294F3941395139DF394B394FA
:10339400D394B394D39C39CE5ACE3ACE39CE19C6EF
:1033A40038C638C638C638C617BE18BE18BE18BECA
:1033B400F7BDD7B5D7BDD6B5B6B5B9D67DEF3CE721
:1033C4005AEF5AEF5AEF3AEF1AEF3BEF1BEF3BEF8E
:1033D400FAE6FAE65CF71BEF77DE16CED5CDD4CD50
:1033E40093C5D3CD15D615D615D636D697DE98DE29
:1033F400B9DED9DEBAD69ACE9AC639BEB7ADD8AD43
:10340400B8ADB8ADB8ADD8ADD8B5F8B5F8B5D8AD98
:10341400D8ADD8ADD8ADD8ADD8ADD8B5D8B5D8AD70
:1034240019BE19BE19B619B619B6F9B5F9B5F9B573
:10343400F9B5F9B5F9B5F9B5F9B5F9B5F9B51AB6F6
:10344400FAB5F9B5F9B5F9B5F9B5FAB5FAB5FAB504
:10345400FAB5FAB5FAB5FAB5FAB5FAB5FAB5FAB5F0
:103464001ABE1ABE1ABE1ABEB8B5159DD49493944A
:10347400B394B394D39CD39CD39CD39CD39CD39C20
:10348400F49CF49CF49CD39CB394B394D39CF49C8C
:10349400B39CB39CF4A439CE39CE38CE38CE18CEF2
:1034A40018C638C638C618C618BE18BE18BE18BE08
:1034B40018BE18BEF7BDF7BDB6B5DADE7CEF3BE744
:1034C4005AEF39E73AEF3AEF1AEF3BEF5CF71BEFAD
:1034D400FAE63CF7DAEED5C553BD53BD32B573BD3C
:1034E40051C5B2CDD3D5F3D5B3CD55DE76DE76DE78
:1034F40098DEB8DED9DEDADEDAD659BEB7ADB7A5C6
:10350400B8ADB8ADB8ADD8ADF8B519B6F8B5D8B54D
:10351400D8B5D8B5D8B5D8B5D8ADD8B5D8B5F8B527
:1035240019BE19BE19BE19BE19BE19BE19B619B6EF
:10353400F9B5F9B5F9B5F9B5F9B5F9B5F9B5F9B517
:103544001AB61AB6F9B5F9B51AB61AB61AB61AB63B
:103554001AB61AB61AB61AB61AB61AB61AB61AB6E7
:10356400D9B5F9BD19BE19BE56A5928CB394D39C96
:10357400F39CF39CF39CD39CD29CD29CD39CF39C51
:10358400B39CB39C939CB39CD4A4F4A4D39C929C6E
:10359400D3A4D2A4D2A416CE37CE16CE36CE36D6E7
:1035A40017C617C617C617C617C6F7C5F6BDF6BDA4
:1035B400B5B5B6BD95B5B5BD74B5D9DE5BEF3BEF1A
:1035C4003AE73AE71AE75BEF3BEF3BEF3BEFFAEE04
:1035D4001BF778DE74BD90A490A4D0ACD0AC52BDDF
:1035E40030BD71C571C5B2CD92CD55E655E655DEF7
:1035F400B7E697DEB8DED9DEDAD679C6D7ADD8AD70
:10360400D8ADB8ADB8ADD8B5F8B5F9B5F8B5D8B545
:10361400D8ADD8B5D8B5D8B5D8B5D8B5D8B5F8B526
:103624001ABE1ABE1ABE1ABE19BE19BE19BE19BEDA
:103634001ABE19B619B6F9B5F9B5F9B5F9B5F9B5AA
:103644001AB61AB6FAB5FAB5FAB51AB61AB61AB659
:103654001AB61AB61AB61AB61AB61ABE1ABE1ABECE
:103664001ABEF9BDF9B53AC6B7B5D394D39CF39C49
:10367400D39CD39CD39CF39CF39CD39CD39CD39C8E
:10368400B3A4D3ACD3A4B3A4B2A4D2A4D3A4F2A4B9
:10369400F2A470942F8C12AD53B511AD11AD11ADD0
:1036A40012AD12ADF1A4F1A412A5F2A4F2A4F2A4F5
:1036B40012ADF2A4B19C909C6F9CF5C597DED8E640
:1036C4007DE77DEF3BE73BE71BE7FAE63BEF5BF784
:1036D400B9E6D1AC4F9C90A44E9C4E9CB0A4F1ACE6
:1036E400F0B410B531BD71C592CD34DEB6EEF7F647
:1036F400B7EE77DE97DEB9DEFADE79CED7ADD7AD99
:10370400D8B5B8ADB8ADD8ADD8B5D8B5D8B5D8B5A5
:10371400B7ADD8ADD8B5D8B5D8B5D8B5D8B5D8B56E
:103724001ABE3ABE3ABE3ABE1ABE1ABE19BE19BE77
:1037340019BE19BE1ABE1ABE19B619B619B619B6EB
:103744001ABE1ABE1ABE1ABE1ABE1ABE1ABE1ABEB5
:103754001ABE1ABE1ABE1ABE1ABE1ABE1ABE1ABEA5
:103764003ABE1ABEF9B55AC6D8B5B394D39CD39C05
:10377400D39CD39CD39CF39CD39CD39CD39CD39CAD
:10378400B29CD3A4D3A4D2A4B29CD39CF39CF39CA8
:10379400D3943184AE73718CF39CD394D294B28C51
:1037A400718C718C30843084718C718C728CB29475
:1037B400718C728CD39CF39C139DF7BD17C637C6CE
:1037C4007BC6DCD61DDF5DE73CE71BE73BEFF9EE8C
:1037D40012B50D940D944E9C0D940E946F9CB0A450
:1037E400D0ACF0AC51BD71C592CDF3D5D7F679FF0D
:1037F400B6EE76E677DE98DEDADE79CEB7ADB7AD33
:10380400D8B5B8ADB8ADD8ADD8ADB8ADD8ADD8B5DC
:10381400D8ADD8B5D8B5D8B5D8B5D8B5D8B5D8B544
:1038240019BE19BE19BE3ABE3ABE1ABE1ABE1ABE97
:103834001ABE1ABE19BE1ABE1ABE1ABE1ABE1ABEC5
:103844001ABE1ABE1ABE1ABE1ABE1ABE1ABE1ABEB4
:103854001ABE1ABE1ABE1ABE1ABE1ABE3ABE3ABE64
:1038640019B63ABE1ABE7BC6B7B5938CF39CF49CCA
:10387400F49CF39CD39CD39CD39CD39CF39CF49C4A
:10388400F39CF39CF39C149D35A5159D7384F16BF7
:103894000E53AE422C324D326E3A2D322D320C2A5A
:1038A4002D324E322D322D2A6E3A6F3A8F3AD04253
:1038B400314B114B52535153725B5574967CD78CD8
:1038C400D68C589D3ABEFDD61CE75CEF3BEFD4C5C1
:1038D4000D8C4D940D94AB83CD8B0D8C0E8C909CE4
:1038E400909C90A4F1AC11B531BD71C534DE96EE57
:1038F40096EE76E677DE98DEB9DE79CED7B5D7B523
:10390400D8ADD8ADD8ADD8B5D8ADB8ADD8B5F8B573
:10391400F8B5F8B5D8B5D8B5D8B5D8B5D8B5D8B5FB
:1039240019BE19BE19BE19BE3ABE1ABE1ABE1ABEB7
:103934001ABE1ABE1ABE1ABE1ABE1ABE3ABE3ABE83
:103944001ABE1ABE1ABE1ABE1ABE3ABE3ABE3ABE53
:103954003ABE1ABE3ABE3ABE3ABE3ABE3ABE3ABEC3
:103964005ABE9BC67BC6DCD6F8B5B38CB394B3946D
:10397400B294B294D39CD39CB294B394D39CD39C6E
:10398400F394139DD39410740D534B3A0B2ACB210B
:10399400EC212E2AEE21CE21EF21CF193122312A1A
:1039A400111A522253225322942A942A942AF53A21
:1039B400F53AF53A774B56435643964B5643764B76
:1039C4009263515B7063F1735184B6B577D68F9C63
:1039D4004D940C94EC8BAB83CC83AC83AD832F944C
:1039E4004F946F9490A4D0ACF0B431BD71CD92CD0E
:1039F400F3DD15DE56DE98DEB9DE59CEB7B5B7B5C0
:103A0400D8ADD8ADD8B5D8B5D8ADD8ADF8B519BE00
:103A140019BE19B6F8B5D8B5D8B5D8B5D8B5D8B58E
:103A24005AC619BE19BE39C619BE19BE19BE1ABE68
:103A34001ABE1ABE1ABE1ABE1ABE3ABE3ABE3ABE62
:103A44001AC61AC61ABE3ABE3ABE39BE39BE39BE05
:103A540059BE39BE39BE19BE19BE3ABE5BCE1AC6AE
:103A64001BBE1ABE3BC63ABEB8B5359D149D75A59E
:103A740075AD74A554A534A5339DF39CF294D294EA
:103A84009594706BEB39AB296B21CD29EE290E2A65
:103A94000E2A0D224F2AED192F220F22302A102A26
:103AA4002F22702A502A512A923292329232143B97
:103AB400153B143B76439743763BD84BB843B84306
:103AC4001954D55B50634E634E636A4A4D73EE934B
:103AD4004B83B1B40E94AD83AC838C83CD8BCD8BEF
:103AE4000E942E946EA4AFACCFB4F0B451BD93C574
:103AF400D3CDD3D514DE14DE98E679D697ADD8AD00
:103B0400B7B5B7B5B7B5D7B5D7B5D8B5D8B5F8B58E
:103B140018BE19BEF8B5F8B5D8B5D8B5D8B5F8B546
:103B240018BE19BE39C639C619BE3AC63AC61ABE37
:103B34001ABE1ABE1ABE1ABE3ABE3ABE3ABE3ABE41
:103B44001AC61AC63ABE3ABE3ABE3ABE3ABE39BEE2
:103B540019BE5ABE7AC67AC639C6B7B5F59CF49C66
:103B6400D39CB39CD39C13A534AD54ADF6C598D661
:103B7400B9DED9DEFAE61AE73BEF3BEF3CEF3CEF68
:103B8400F49CED5AB1735063EB31AA214A190D2A02
:103B9400CC214E2ACD19ED210E220E220F22502ABD
:103BA4002F22702A502A702AB1329132B132143B3A
:103BB400343B343B9643B74B7643F84BD74BF84BE7
:103BC4007643B03A2F5B8E73AE734C638D736C8304
:103BD4006B8BD1B4CD8B8C7BAC83CC8BAC8BCD8BF2
:103BE4000D8C2E946EA4AFACCFB4F0B451BD93C57C
:103BF400B3CDD3D514DE14DE77DE58D697ADD8AD69
:103C0400D7B5D8B5D8B5D8B5D7B5D7B5D7B5D8B54C
:103C1400F8B5F8B5D8B5D8B5D8B5D8B5D8B5D8B5F8
:103C24009BD69ACE9BCE5ACE19C619BE3AC63AC670
:103C34001AC63ABE3ABE3ABE3ABE3ABE3ABE3ABED8
:103C44003AC63AC63ABE3ABE3ABE3ABE3ABE3ABEA0
:103C54007AC65ABE39BED7B5149DD39C718CB29422
:103C64004F944F944E944E942E8CED83ED830D8C93
:103C7400F1A432AD73B5D5C537CE78D699DEB9DEA9
:103C840054AD58CEFEFFDEFF1CDFF8B5527C6C3A13
:103C9400CB210D2A0E2A0E22CD192E222E220E22DF
:103CA4002E226F2A4F2A4F2AB032902AB12A333B50
:103CB400333B133B75439543543BD64BD64BF74BA1
:103CC4005343AB190D5BAE73AD73AD73AD7B4B83D7
:103CD4004A83F0B4ED8BCC838B7BCC8BAC83ED8BA4
:103CE4000D8C2E946EA4AFACCFB4F0B452BD93C57A
:103CF400B3CDD3D514DE14DE77DE58D6B7B5F9B517
:103D0400F8BDF8BDF8BDF8BDF8BDF8B5D8B5D8B55F
:103D1400D8B5D8B5D8B5D8B5D8B5F8B5F8B5D8B5F7
:103D24003DE7FCDEDBDEDCDE7ACE39C619C63AC6F8
:103D34003AC63AC63AC63AC63AC63AC63ABE3ABE8F
:103D440039C639C63AC63AC63AC63ABE3ABE3ABE89
:103D540019BE19BE7ACE96B530840F84AD736C6BE0
:103D64006B7B6B7B8B7B8B7B8B7B8B7B8B7B8B7B5F
:103D74008B7BAC7BAC83AC83AD83AD838D7B8D7B44
:103D84000D8C0D8C8F9C31A556C67CEFFFF7BFE7D9
:103D9400947CAB21CC21CD210E220E222E224E2248
:103DA4002E226F2A4F2A4F2A90329032B032123B81
:103DB400123B133B94439543543BB64BB643D64B0B
:103DC400324389192D63AC7B6B73AC73AC7B8B83EF
:103DD4008A8B31BD0D8CAB7BAB7BEC83AB83CD8B02
:103DE4000D8C2E948FA4AFACD0B411BD52C593C525
:103DF400D3CDF3D514DE35DE77DE58D6F8B5F9B574
:103E040018BE19C619C619C619BE18BEF8BDF8BD24
:103E1400D8B5D8B5D8B5D8B5F8B5F9B5F8B5F8B5B5
:103E2400BBD69AD6DBDE1CE7FCDE9BD65ACE5AC63E
:103E34003AC63AC63AC63AC63AC63AC63AC63AC67E
:103E440059C659C659C65AC63AC63AC63BC63BC6EF
:103E54003AC67BCE18BE30842B6B4B6B6B6B4A6BB4
:103E64006B7B6C7B8C7B8C7BAC83CC83ED8BED8B05
:103E7400ED83ED8BED8BEE8BEE8BEE8BCE83CE83D1
:103E84008B83CB834973086B296B4B6B708C9AC6FD
:103E940098A56D3A8F3A2E2A2F2AEE194F224F22D7
:103EA4002F2A7032702A702AB132B132B1323443BF
:103EB400333B343BB64BB64B7543F74BD74BF74BC1
:103EC400F042A9214C6BCC838B738B738B7B6A83FD
:103ED4002983B3CDD4BD31A58F94EC83AB832E94C9
:103EE4000D8C4E9C8FA4AFACD0B411BD52C593C5FC
:103EF400D3CDF3D514DE35E677E678D618BE19B6F9
:103F040018BE18BE18BE19C619BE19BE19BE19BEF0
:103F140019BEF8BDF8B5F9BD19BE19BEF9B5F8B5A5
:103F240079CE9AD6DBDEDBDEDBDEDBDE9BD639C682
:103F34005AC65AC63AC65AC65AC65AC65AC63AC6BD
:103F440059C659C659C65AC63AC63AC63AC63AC6F0
:103F540019C67ACEF4A40B630A63296B4973AA7B4E
:103F64006C7B8C83AC83CD8BCD8BCD8BCD83CD8B78
:103F74000E8C0E8C0E940E940F940E940F8C0E8C4B
:103F8400CC8BAC83AC83CC832B6B2B6BAA52872951
:103F9400472169190D2AED21EE21EE21902A5022A4
:103FA400302A7132712A712AB232B232B2323443B7
:103FB400143B353B974BB74B7643F853D84BF84BF0
:103FC4008F3AA9292C6B8C83AC7B8C7B8B836B8382
:103FD4006A8BD4CD36CE16BE15C611ADED8BAD832E
:103FE4000E944E9C8FA4AFACD0B411BD72C5B3CDAA
:103FF400D3CDF3D514DE55E677E678D639C619BEA7
:10400400F8BD18BE18BE19C639BE39BE39C639C680
:1040140019BE19BE19BE19BE19BE19BE19BEF9B50D
:104024009AD6BADEBADE9AD69AD6BBDEBBD659CEBB
:104034005ACE5ACE5AC65AC65AC65AC65AC65AC66C
:1040440059C659C659C65AC65AC65AC63AC63AC6AF
:104054007ACED7BDCE7BC9622A6B296B6A7BCB83B0
:10406400EC8BCC8BCC83CC8BEC8BED8B0D8C4E946E
:104074002E8C2E944F945094509C509C509C509C49
:104084004F9CCD8BEE8B6D7B4D73EC6205218408C8
:10409400A508E70849110D2A2E2A0E224F22502284
:1040A400302A712A512A712AB2329232B3323543FC
:1040B400143B153B974397437643F84BD84BD84B67
:1040C4006F3289292C6B6C7B8B7BAC838C838B8BC1
:1040D4006B8BB5CDF6C5F5BDD5BD12ADEE8B0E948B
:1040E4002E946E9CAFACCFB4D0B431BD72C5B3CDF9
:1040F400D3D513DE34E655E656DE37CE19C619BEDF
:1041040018BE18BE18BE18BE19BE19BE39BE39C6AF
:1041140019BE39BE39BE39BE19BE19BE19BE19BE83
:1041240079D679D69AD69AD69AD6BAD6BAD67AD62D
:104134007ACE7ACE5ACE5ACE5AC65AC65AC65AC61B
:104144005AC65AC65AC65AC65AC65AC659C659C66D
:1041540079CEB194C95A4B736B736A7BCB83AA83B0
:104164004E940D8C0D840D8C2D8C2E842E8C4F8CA6
:104174006F8C70949094B19CB29CD29CB29CB29C73
:104184007094919CCE838F7BED62A51884082619C8
:104194004719E60889192B2A2C224E224F224F2236
:1041A400302A712A712A712AB232B232D23235439C
:1041B400353B353B964BB743763BF84BD74BD84B07
:1041C4004F3269216E7B8C836B7BAD836C7B6C83FC
:1041D4006C8BD5CDF7C537C6D5BD32B5CD8B0F9415
:1041E4004E946F9CAFACCFB4D0B431BD92C5B3CDB7
:1041F400D3D514DE34E655E636D6F6C5F8BDF9B5A2
:10420400F8BDF8BDF8BDF8BDF8BDF8BD18BE18BEC0
:1042140019BE19BE19BE39BE19BE18BE18BE18BEC5
:1042240079D699D69AD679D69AD6BADEDBDEBBDEB3
:104234009AD67ACE5ACE5ACE7ACE7ACE5ACE7ACE72
:104244003AC67BCE5ACE39C65ACE59C638C69AD645
:1042540095B54B6B0A6B6B7B8B7BCC83CB832D949B
:104264006F8C8F940E842E842E84708C6F8C6F844C
:10427400B194B194F194F29C33A5F29C129D33A5B0
:1042840013A5718C518C6E6B06218408C6102719F6
:104294002711271188190B224C224D226F2A702ACC
:1042A4004F2A902A702A902AD232D132D2325443E1
:1042B400543B343BB643B6439643174CF84BD74371
:1042C4002E2AAA294D738C838C7BAD83AD836C839A
:1042D4008C8BF6CD17C617C6D5C512ADED8B0E94D3
:1042E4002E948FA4AFACCFB4F0BC51C592C5B3CD5E
:1042F400F3D514DE54E676E636DEF6C5F8BDF8B539
:10430400F8BDF8BD18BEF8BD18BE18BE18BE18BE5C
:10431400F8BD39BED7B539C618BE59C639BE59C657
:1043240079D699D69AD699D69AD6DADEDBDEBBDE72
:104334009AD67ACE59CE5ACE7ACE5ACE5ACE5ACEB2
:104344005BC65BCE3AC65AC659C659CE79CE17C695
:10435400AD732A634B736B73AC83ED8B2E944E9CBD
:104364007094719C2F8C2F8C2F8C508C4F8C708C54
:10437400D194F19C129D32A573AD72A573AD72AD4B
:10438400149DF49CB394AB4A63000619471947196A
:10439400A921EA212C2A2C2A0D220D222E222E229A
:1043A4004E226F2A4F22702AD132B12AB12A333BCE
:1043B400533B333395439543753BD64BD643953B9B
:1043C4000D22CA296D73AC838B7B8C7BAC838C836D
:1043D400AC8BF6CDF6C5F6BDF5C531B5EC930D9CA9
:1043E4002E948FA4CFACCFB410BD51C592C5D3CDFC
:1043F400D3D514DE34E675E636DED6C5F8BDF9B598
:10440400F8BD18BE18BEF8BDF8BDF8BDF8BD18BE9D
:1044140039BE39C618BE18BED7B5D394D394B28C5E
:1044240079D69AD69AD699D69AD6BADEDADEBBDE91
:10443400BAD69AD67ACE7ACE7ACE7ACE7ACE7ACEC8
:104444007BCE7BCE3AC69ACE59CE59CE78CE33A502
:104454008852E9620A6B6B730E8C2E944F9C2E94D7
:10446400509C0F943094709C2F8C719CD2A4D29C3D
:10447400F3A433AD74B574AD94B574B5B4B5B4B533
:10448400B8ADF59472846B42A400061188194811E2
:10449400EC210D2AED21EE210E222F2A70326F2AF3
:1044A4006F2A9032902AB032F13AD132F232544328
:1044B400543B543BD64BB6439543F74BF74BB6436B
:1044C400EC19E9298D7BAC838B7BAC7BAC838B8330
:1044D400AC8B16CE57CE36C6F5C510B5EB930C9CF7
:1044E4004E9C8FA4CFACCFB410BD51C592CDD3CDCB
:1044F400F3D514DE34E675E656DEF6C518BE19BEED
:1045040038C638C638C619C618BE18BE18BE18BE76
:10451400F8BDF8B559C638C6928C8A4A894A4842C9
:1045240079D679D679D679D69AD6BAD6BAD6BAD62B
:10453400BAD69AD69AD67ACE7ACE7ACE7AD67AD68F
:104544005ACE5ACE5ACE7ACE59CE79CE99D695AD88
:10455400F29C12A52F8CED83EE8B2F94709C4F94BC
:104564002F940F8C0F8C308C1084F083AF7BD07B16
:10457400328C3284538C948C37A5FABDDDDE3FE750
:104584007FE77FE719B6E929A400261168118A1983
:10459400ED210F2AEF21312A302AEF212F2A4F2A29
:1045A4004F2A9032702A9032D23AD232D2325443C5
:1045B400343B343BD64BB6437643F84BD74B964308
:1045C400EB19E931AD7BAB83AA83AB83AB83AB8BB4
:1045D400CC8B16CE36C615BEF4C551B50C9C2C9C9E
:1045E4004E9C8FA4CFACCFB430BD72C592CDD3CD89
:1045F40014D634E654E676EE56DEF6CD38C639BE29
:1046040039C659C659C639C639C639C639C639C66E
:1046140038BE39C679CE58C6139D2F7C0B5BC63184
:1046240079D679D679D679D699D69AD69AD699D68C
:104634009AD69AD69AD69AD69AD69AD69AD69AD6F6
:10464400BBD69AD69AD67ACE59CE7ACE99CE59CEB0
:10465400BAD6DADE17C654AD0F8C509450942F940A
:104664002F7CCE73CB520832093AC92968212C32E7
:104674002D320D2A4E3290421353545B7563345BD2
:10468400706BF69CFAB52A3A8400EA296D326E32D0
:10469400EE210F2AAE19CF21102A0F2A50324F32A1
:1046A4004F2A903270329132D23AD23AF23A544B83
:1046B40034433543B753964B7643F853D74B76433D
:1046C400CB19E931AC7BAA83AB83CB83AC838B8BD3
:1046D4000D9457CE57C657C635C630B5EC932DA4A6
:1046E4004E9C8FA4CFACEFB430BD72C5B3CDD3CD47
:1046F40014DE54E654E676EE56DEF6CD38C63ABEFF
:1047040039C639C639C639C639C639C639C639C6AD
:1047140039C659C658C679C6F6BDB1942B63CD7354
:104724009AD69AD69AD69AD699D69AD699D699D608
:1047340099D699D69AD67AD69AD69AD69AD69AD617
:10474400DBDEDBDEDBDE9AD67ACE5ACE39C67ACE13
:1047540039CE59CE79D679D613A55094EE8BAD7B4C
:104764002C5B8A42CB4A8A3A4A322A320B2A0C2AD6
:10477400AF3A8F3A114B324B7453955BF663B56382
:10478400C5188410E518C51084002811CB212D2AE2
:10479400B03A324B7032EE210E2A2E2A6F3A2E2A6C
:1047A4004E326F326F329032D13AD13AD13A534BC2
:1047B40033433443B653964B7543F853D753554359
:1047C400AA19E931AD7B8B83AB83CC8BAC838C830F
:1047D400EE93B5BD95ADF6B516C631ADCC8B0D9443
:1047E4006E9CAFA4CFACEFB431BD72CDB3CDD3D5F5
:1047F40014DE54E654E675EE56DEF6C518C639BE28
:1048040018BE38BE39C639C639C639C639C659C6BE
:1048140059C6D7B5B6AD5084884A273A27422742AD
:104824009AD69AD69AD69AD69AD69AD699D699D606
:1048340079D699D69AD69AD69AD69AD69AD69AD616
:1048440078CE99D69AD6BAD69AD67ACE5ACE5ACEA7
:104854005ACE39C639C6BADE95B5EE83CD838C7B84
:10486400695207422C634D6B0C5B4D63CF6BAF6B8E
:10487400527C9384569D569D359D569D769DF48C11
:10488400108476B5528C06196400A600A700660051
:10489400CB191043CF3A4D2A0B22EB216D324D3206
:1048A4004D328E3A6E328E32D03AAF3AD03A324BE3
:1048B40032433343B553744B7443F75BB64B343BC9
:1048C4006A11EA39AD838B8BAB8BCD8BAD838D8332
:1048D400509CB29C8A4A08322B630E8CED8B2E9C22
:1048E4006E9CAFA4CFB4F0B431C592CDB3CDF3D5A3
:1048F40014DE54E654E675EE56DEF6C518C639BE27
:1049040038BE39C639C639C639C639C659C659C674
:1049140059C634A5CA52E631063A263A063A674AD7
:104924009AD67ACE7ACE9AD69AD69AD699D699D655
:1049340099D69AD6BAD69AD69AD69AD69AD67AD6F4
:1049440098D6B9D678CE9AD67ACE5ACE9CD63AC6CE
:104954005ACE7BD65ACE7AD6D6BDAD7BEE836C7357
:10496400AA722C7BAE8B4C7BAD838D838C7B6F9436
:10497400F1A431A5B3B5B2B5F3BD74CE74CE70ADA8
:10498400919CD39C19C667290300281169196811E1
:10499400704BF15BED3A8C32AD3ACD422F4BEE4287
:1049A4002F4B5053504B5053925371539253F463C3
:1049B400B353B353155CB453B44B165CD553123B89
:1049C4004A11EA39CE8B8C8BAC8BCD8B8D838D8346
:1049D400509C35AD0D5366214842CE7BCE8BEE9371
:1049E4006E9CAFACCFB4F0BC31C592CDD3D5F3D56A
:1049F40014DE54E674EE95EE56DE16CE18C639BEB5
:104A040038BE38BE39C639C639C639C639C659C69C
:104A1400F7BD5084E63947424321063AC952C85289
:104A240099CE99CE79CE79D69AD69AD679D699D680
:104A340079D699D699D699D6B9D6BAD69ACE9ACEE7
:104A44009AD69AD679CE99CE99CE99CE38C67ACEC0
:104A54009ACE59CE79CE79CED6BD4C6BAD7B0A6356
:104A64002B736D83CE8BAE8B6C8B8C8BCD9B2EACD2
:104A74006EBCCFC451DD91ED71ED13FED2FDD2FDBC
:104A8400B3CDF5CD94BDE641474A0963096B086B84
:104A9400E862C8520A5B2C5B0C532D5B4D6B2C6B8C
:104AA4008E5BF063AF5BAF6310740F7CEF7B918C14
:104AB400B284917C138DD18CB094119DD194AD6B43
:104AC4000A63E86A6883888BA98BAA8BAB93898B6A
:104AD4002C9C52AD8C6B063A885ACC8BEB8B4D9444
:104AE4006D9CF0ACF0AC11B532BDB4CDB4D5D3DD12
:104AF400F4ED34EE34EE97EE57DE17C65AC619B607
:104B040039C639C618BE39C639C639C618BE7AC6BA
:104B140018BE928C6A4AA631CB5A6D6B494A084238
:104B240079CEB9D69AD679D679D679D679D6BADE67
:104B340079D699D699D699D699D699D67ACE9ACE47
:104B440099D659CE9AD6BAD699CE99D679CE99CE47
:104B540059CE9AD659CEDADE38CEEE83CD7BC95AF9
:104B64002B73AD83CD836C7B8D83AD830E944FA467
:104B74004EA4B0B451C592CDF4DDD3DDB3DD14E65B
:104B8400D4D556E6B4C54431C218A539474A474A74
:104B94004000E3104A320A224C2A0B2A2B322B3AC9
:104BA4006B3A4B328C3A8D3A8D42AD52CD52305BDA
:104BB4000F530F4B6F634D63D29CD29C8E6BEC4AA8
:104BC400A6314752AA8BCA93CB93AC8BAC936A8B16
:104BD4008EA4D4C5B19454ADB19CED8BCC8B0D8C0B
:104BE4008EA4AEA410B552BD72BDB3CDB2CDF3DD6B
:104BF40013E674F634EE35E677DE17C618BE7ABED1
:104C040059C639C639C618BEF8BD59C639C659C6BB
:104C14009ACE55A52842EF7BAE73A6310319A53170
:104C240038C678CE79CE59CE9AD6BADE7AD659D647
:104C340079D699D699D699D679D679CE79CE9AD687
:104C440099D679D658CE95B595B578CE99D679CEEC
:104C540079CE78CE79D634A50B634B6B0E84C95AC2
:104C64002A6BCD7BCD7B8C73CD838D7B2F94709CF5
:104C74006F9493BDB4C5D5C516CE36D677DE78DE2F
:104C8400D5CD98E695C52531420846292A42093AE8
:104C9400C50847114C2A4D2A4D226E328E326D3290
:104CA4008D3A8D3A8E3AB0429042703AB1425453A2
:104CB4001343324B515B538CF59C7384D2638D3216
:104CC400E418284ACC8BCC93AC8BAD8BAD936B8B17
:104CD400B0AC6F94894A8A522C736C830E944F94AF
:104CE4006EA4CFACEFACEFAC91BDB2C5B1C533DEB1
:104CF40012E612E654EEB7F697E637C658BE79BE0A
:104D040018C618C639C618BE59C67ACE39C659C689
:104D140079CEF7BDB294B294A5316008E218642943
:104D240074AD38C69AD69AD67AD679D679D67AD642
:104D340079D679D699D699D679D679D699D69AD676
:104D440099D658CED29CEA62CD7BF5BD98D616C6CC
:104D540078CE57CEB194EA5AA5398852CD7BE95A18
:104D64004B6BAD7B8C732B6B6C736C7B0E8C2B73CE
:104D7400475212AD32B573BDB4C5F6CDF6CD37CEBC
:104D840038CEDBDE76B52629841068294C42EB390F
:104D94000711E70869192C320711A400E510C510A2
:104DA4000C32D0424F2A70321343D332F43A353B9B
:104DB4005543334B3153D694F27BD26B94539022A8
:104DC4000619694ACD83AC83AC83CD8BCD938B8B91
:104DD4006E9C97D617C695B554B5B0A4CC8B0D8CE4
:104DE4002EA4B0B411B551BD70BDF2CD32D6F2D5FA
:104DF40053E654EE76EE76EE36D6F6C579CE38BE68
:104E040059CE38C659CE59CE59C618BE79CE17BE1A
:104E1400D6B5139DD5B5AD730219E2184329A53152
:104E240078D679D658CE38CE79D69AD69AD69AD616
:104E340079D679D699D679D679D699D699D638CEDF
:104E440095B5CE7B685267524A6BED830D84ED7B3A
:104E54004E8C2A63C95A6752674A8752674A8852F6
:104E6400A95A2B6B8D734B738D83CE8BAD8B6441A1
:104E7400C55173CD94CDB4D515DEF5DDF5DD77EEF2
:104E8400F8B5DCD6B8AD2619640868212C3A0B3283
:104E9400A610E61847290429443127524B7BC96AD6
:104EA40048216D3AD03AD132F232F232533BB54B0B
:104EB400113BEF42958457A52F5BD363944B721A31
:104EC4002511694AED83CC83EC8BED8BCC8B8B8BDA
:104ED4006D9CB6DE36C616C657D6AFA42D94CB83CA
:104EE4004C8312BDF1B431BD71C5B2CDD2D533E618
:104EF40013DE55EE15E698E678DE33ADB6B578C622
:104F040018C618C679CE79CED6BDB5B517C60F84E6
:104F1400CD73884A4F84A95222212221A431212110
:104F240098D6B9DEB9DEBADEBADE79D659CE59CE14
:104F340079D679D679D679D679D69ADE58D675B512
:104F4400EE832B6B47526752464A496B0C846A6B5B
:104F54000863C85A0963CC7B4A6BE5410542A4390E
:104F64008431E641CA624C738D83AD8BCD93476225
:104F740006626FAC73D573D5B4DDF5E577EED1BCBD
:104F8400AF63149597AD2621630068214C3A2C3AFF
:104F940027194308A320E649E97ACC9B8EB4B2D5FD
:104FA40031944B4A6D3AD032123311332D1AEA1927
:104FB4004B2AD063B38CAF6B0D5BF26BB45B4F22A7
:104FC40005118942ED7BEC83EC8BCD8BCC8BAB8BC9
:104FD400AEA414CE55CE77CEF5C5AF9CEB838973C2
:104FE400885A0E8CB0A472C571C572CDF3DDF3E599
:104FF40035EE35E677EEF9F637D66F9412A516C678
:10500400B9D699CED6BD74ADEE7B484A2B63AD7349
:105014002642C95A0D7CE539632963296229054270
:1050240016CE74B513AD95B558CE79D679D69AD631
:1050340099D679D699D679D679D699DED6C55094AB
:10504400CD832F8C4B734A6B464A86520863A65213
:10505400E441664A66528752A752C43942296329F9
:105064008431A53189526C738D7BAD83709CD2AC35
:10507400AD8BB1ACD5CDD5D5D5CD17D6F6D5275278
:105084008A3ACC4AD39425218308A8296C3A2C3235
:1050940048190519A2188441E130C451E8722983E2
:1050A4004FAC29522B32F132123311336D2ACA21FB
:1050B4000611ED52662142006C428D422C32CB2106
:1050C40006118B4AEE83CD83CD83CD8BAD8BCC8BF8
:1050D4002D9435CE56CE36C6EE83CD83054AC75AB7
:1050E40025428A734E946EA492D5D3DDB3DDD3E505
:1050F40014E655EE96E6EFAC8A7B4973EB83CB83DB
:10510400CD7B2F846B6BA9524742E639E6390642C0
:10511400884AC9524A6B053A42296331833126428F
:105124008C7B4B738D7BF2A458D69ADE79D679D6D4
:1051340099D699D699D678D678D679DE54B58D7B1A
:10514400EE8BF2A44B738B73096386526552A65A95
:10515400E75A8652454AE85A264A22298331632966
:105164002219A53188522B638C73AD7BCE83509466
:10517400B19C33B554B5B5BD17C659CED7BDCB5ABE
:1051840012746B42738C2621A410C9316C3A2C32F0
:105194008500672166298541802063496B836028E7
:1051A40006626A5A6D3AF232F32AF332124BEC3148
:1051B4000719860044002811EB29C608C608681997
:1051C4000619AC52EF83CD83CE8BEE93CE93AD8B89
:1051D400B0A4B8DE36CE9194CE7BCA5A88524A6BBC
:1051E400275B6863897365520D9C72CDF4DD14E608
:1051F40054E675E674DEE98B066B066BE562266B96
:10520400464AE439C8528B6B874A2642464A87523B
:10521400474A8852674A67522642A439E541833196
:105224004A730E8C2F94509413AD58CE99D6D6BD94
:1052340017C657CEB9DE78D617CE38D633AD5094CC
:10524400B5BD57D6D1A40D8472B5EB7B6552A65279
:10525400286BE85AC85A664A833105420121A431B1
:105264002221E53988520A636C73AD7B0E8C709CE5
:10527400709CF2AC94BD94BDB5C5F7C5F7C534AD0B
:1052840074842F6336AD83104208A8296C420B3214
:105294006719A7296531A96AA972A551AD9BCE9B4F
:1052A400D2BC2D734D3A702A143BF23A8F42C71088
:1052B400C710CB29CB21114B0C2AA608C6100719FD
:1052C400E5208B5AEF83AD83EE93CE93CE93AD8BD3
:1052D400D1AC11AD6F94CE7BEB62AA52EA5A2A6329
:1052E400643A2753285B6F8C94BD37D6F6CD57DECE
:1052F40097E696E637EF2A8C6352C45A266B887376
:10530400496B24428652C75AC439C43967528752FA
:10531400264A064226428852C85A464AC539E541B9
:105324008B834A73CC83B0A4909CD2A457D6B5BDCA
:105334004F946F945BF778D698DE509458D679DE04
:10534400F2A478D616C6F5C597D6CB7B286B254A2A
:10535400454AC75A2963E539A4318B73E1184229B8
:105364000221C539C95AAD83AD83EE8B2F9CB1B4EC
:105374006FAC32C594D5D4DD15E636E636E674D581
:10538400F9CD5AD615B5E851A741E841E839293A8B
:105394008729C739074A065AE238C238E7610762E3
:1053A40050AC4D7BC939AA292C324C426B4AE9399D
:1053B400C831AC4A6B42CC4AE9398731A839463105
:1053C4002429CA620E8CED8BED93ED93ED93CC8B77
:1053D400F0ACEB83C75AAC7B2B634742A431254224
:1053E400C331253A474295A5BFEFBBCE56A5DBD6C0
:1053F400FADED4BD10A52B8C44528552A65A486BB4
:105404002863E75A28632863454AC339A339054208
:105414008752E5416752885A4B732B6B4B73E641B5
:10542400E86AE96A2A732A73D1A4F5CDD5C536D6BC
:105434004A73ED839CFF5BF75BEF99DEBDFF99D662
:10544400D6C5DADED5BD56CE5AEF296305420442ED
:105454008652E441E85AE1200121674A6329264241
:10546400E64148528962CA6AAD8BAD930F9C90B4F1
:105474002EAC52D593DD72DDB3E5F4EDB3ED31DD41
:1054840075CD17DE13C58972EA72EA72A95AEA5A0F
:105494000B63A95A274A43392341E659AE93496A13
:1054A400676ACA72695A8A5A895A685A675AC862B4
:1054B400A852C952C952A85AA86AA86AC96AAA6A4B
:1054C4002B73EE8B4E942D94EB8BCC93ED932E9407
:1054D40010AD07636131254A2742642101198229ED
:1054E400C539E539E731727C5BAEFAA5779539AEFB
:1054F40059BE4B6305424A7366526652C85A2963C1
:10550400A552444AC65AA65AA65AE441C8622A6B0E
:105514000A6BA85A0A6B685233ADF6C5F6C5885AA9
:10552400AB83297329738B834E9C8FA4D0AC15CE87
:10553400CC830D8C19EFB8DE16CE94B5D6BDDADE69
:105544007CEFB19CAD7B73ADB8DEE85AA339A752AA
:10555400A85A66522229A0104229264AA331874A12
:105564008C73885A2752895A6C7B4C7BAE8B2F9C48
:105574002FA4F1BC53CD73CD94DDD4DDD4DD97F6E7
:1055840077EEB8F653C52239A020C120C1200221EC
:10559400022143292329C1200231E651CE93CB7243
:1055A4004241C128C1280231E1302239E13043317E
:1055B4008429432163314139656A666AE45105529D
:1055C400E651A5418439C44108738B830A73064AA2
:1055D40087526131E0202229C6318529C431A331A3
:1055E400A541E641E731AB42B05B115C526CAE536E
:1055F400CE6B6B638752C339254AC85A095BA852DC
:10560400444A6552286B086310A54A73AF9CAC7B6F
:10561400675AEE8B12AD8C7B16CEF6C537CEEE8371
:10562400AB83A6624D9CF3CDB3C5F0AC0C9410AD26
:10563400EB8B6E9C31AD6F94F1A49094EA5A4C6B51
:105644000F84A952A952AC736F8CC85A0542C85A28
:105654008B73A85AA0102229C43929638B6BC85AAA
:10566400E4398331C539E63900008110E3200000B4
:1056740085316110811081108110A118E64133AD8C
:10568400A85A53AD4B6B60086008C218A110C11032
:105694000219E218E21884316018A1288128855182
:1056A400EE7B40080000200861182431A318830809
:1056B400A500C408C3104010455A865A2229A010D8
:1056C4006018000800006010A8624B7B685A8110C3
:1056D4000221E120A439C539C63165216429E020BD
:1056E400A441465206426C631395D284917CD18CBA
:1056F4002E7C2963EB7BE862A75A664AC85AA852F3
:10570400A652E75A0863AA7B39EF6A73CC830A6B03
:10571400A962AC832F94C962F2A44F94B19CAD7B6F
:10572400697B2C942C9451BD30BDEB932C9C4D9CE7
:10573400AEA48A7B4552296B674A8852073A853161
:105744004421063A843143218431C4392542E95A3B
:105754004A6BE53926420963833183292963A752B9
:10576400664A6229E439C952C110810882080000DE
:10577400A62920008200610020002000C729559D31
:10578400EA5274A5AA4A2000E41086214521442146
:10579400241903194429CF7B49522439E65933C5C6
:1057A4009AC64519A3084300020044084400860031
:1057B4002909E700640020006852C95AC531231141
:1057C400C32820084000A118EA6AA962E741E31847
:1057D400C2184229264A47524521A7318531E12082
:1057E4000129A33921298B7B32B5F1AC4E9430AD1C
:1057F4008E9CCA834C94AA7BE7626552A752A75A2F
:10580400A75A8652A75A0D84B8DE0A6B0E8C6F9C79
:10581400EE8BAD83CD83A9622F8C0E8C2F8CC96245
:10582400C66A2C9454DE75E60FB5AA8BADACEEB403
:105834006D9C8EA4086BCB7BED83C95A894A6D6B32
:10584400C952C5318429A852A8528752E95A09631A
:105854008B73C4394229095B874A664A874A29639C
:10586400E862A331E120432164294521C3102100CA
:105874008629210061006100A20803190B5BF29CD8
:10588400AB8332ADEE7B0319A729A731E41862106C
:10589400410801008308D494F17B294A1094BEFF87
:1058A400B3940519672167210619C518E61848211C
:1058B4008921E6086300C3186852684A684A494265
:1058C400C6416008000002198C73C962C6394421BC
:1058D40023196329465267520319E731E539002930
:1058E400C339C33962412983ECA38A9B499BE7826C
:1058F400CA93EB932C944D94865A254A096B675AA4
:10590400A85A09638B7BAC7B2E8CC9624F94ED8BB8
:10591400E96A89624B73885A4F9453B5F1A4885A43
:105924000773AA83B2C5AEA4AA8B69836DA40B9432
:105934004C9C6D9C2873496BE95A884A4C63918C42
:10594400EE7B0A5B684AC952E95AC852A852095BFD
:10595400A8520542664AE85A09634542043AE439C2
:10596400254AC439C120A1186110452986318631E0
:10597400084282106110A118853927522F94B1A4CE
:10598400A99351CD4E9CA120401021100008211054
:10599400220802000719B684EB3144000A42BCE62F
:1059A4002D730529472926214629663186318631FA
:1059B4006629C310C21084392652843927524852AA
:1059C4002A6BA531600001196A6B0A6BC639441948
:1059D40084210019E341264A0219A52905426131AF
:1059E400254262314241467A099B4592E8A2458AA2
:1059F4002472AA9328734D94AB7BE9626B7B685A3B
:105A0400885A885A4A6BC9624B73EA6A4F940E8C5F
:105A14008962685A2B73064A6C7BB09C6F9CA85AA7
:105A24000573467BA88BC56AC66A655A455AA76240
:105A3400E86A45524552A65AC239E6628B94A87B5D
:105A44002E94A86263394331A539484AA6318A4A5B
:105A5400E8392A4267292A424A4A8B524942C739BD
:105A640085398118811861102008242128428A521E
:105A74008A4A452166296621051925215284AB4AA3
:105A84000329508C508C0000200062082100220061
:105A9400420001006B4A1AC6907363089CD65FEFFC
:105AA400ED62E42046294529252166292529662910
:105AB40044292329E120E020465247522752695ABB
:105AC4000763286BE75AE75A6A6BA752C4396329FC
